:020000040001F9
:10200000E0340020F923010001240100192201001D
:10201000052401000724010009240100000000003C
:102020000000000000000000000000000B24010080
:102030000D240100000000000F2401001124010004
:102040001324010013240100252B01001324010097
:102050001324010013240100992501001324010019
:102060001324010013240100132401001324010090
:102070001324010013240100132401001324010080
:102080001324010039280100132401001324010046
:102090001324010013240100492801001324010026
:1020A0001324010013240100132401001324010050
:1020B00013240100132401000000000000000000B0
:1020C0001324010013240100132401001324010030
:1020D0001324010013240100132401000000000058
:1020E00000000000000000000000000000000000F0
:1020F00000000000000000000000000000000000E0
:1021000000000000000000000000000000000000CF
:1021100000000000000000000000000000000000BF
:1021200000000000000000000000000000000000AF
:10213000000000000000000000000000000000009F
:10214000000000000000000000000000000000008F
:10215000000000000000000000000000000000007F
:10216000000000000000000000000000000000006F
:10217000000000000000000000000000000000005F
:10218000000000000000000000000000000000004F
:10219000000000000000000000000000000000003F
:1021A000000000000000000000000000000000002F
:1021B000000000000000000000000000000000001F
:1021C000000000000000000000000000000000000F
:1021D00000000000000000000000000000000000FF
:1021E00000000000000000000000000000000000EF
:1021F00000000000000000000000000000000000DF
:10220000DFF810D000F08AF9004800475D3C01007B
:10221000AFF30080E0340020094B1EF0040F1CBF18
:10222000EFF309801847EFF308800649064A884211
:1022300001D8904202D88D464FF0000018470000A8
:102240003D260100E0340020E014002030B450E8C6
:10225000012F93B2C48923448489A34228BF1B1B46
:102260000489A34202BFBFF32F8F002007E0C3EA17
:10227000020340E80134002CE9D14FF001000A606C
:1022800030BC704750E8012FC2EA024240E8012109
:102290000029F7D1704730B450E8022F1FFAA2F39B
:1022A000C488A34202BFBFF32F8F00200DE0C48972
:1022B00023448489A34228BF1B1BC2EA034340E88E
:1022C0000234002CE8D14FF001000A6030BC7047A6
:1022D00050E8022FC2EA224240E802210029F7D149
:1022E0007047034653E8022FD988B2EB324F4FF0C4
:1022F000000017BF92B241EA014142EA014104E005
:102300005A68B2EB324F08BF012043E80212002A9C
:10231000E8D1704730B4044654E8000F0D4644E855
:102320000053002BF8D1156030BC704730B4044620
:1023300054E8000F40EA010544E80053002BF7D1B0
:10234000156030BC704730B4044654E8000F00EA12
:10235000010544E80053002BF7D1156030BC7047ED
:1023600030B4044654E8000F80EA010544E8005305
:10237000002BF7D1156030BC704730B4044654E8E8
:10238000000F00EB010544E80053002BF7D1156066
:1023900030BC704730B4044654E8000FA0EB010590
:1023A00044E80053002BF7D1156030BC704770B47F
:1023B00004464FF0000054E8006F0D68AE4207BFBE
:1023C00044E80023012044E800630E60002B1CBF9A
:1023D0000020F0E770BC704730B4044654E8000FAA
:1023E00088422CBF451A054644E80053002BF5D11E
:1023F000156030BC7047000006488047064800471B
:10240000FEE7FEE7FEE7FEE7FEE7FEE7FEE7FEE7A4
:10241000FEE7FEE74D280100012201002DE9F05FF3
:102420000546002092469B46884606468146402443
:102430001BE0284641464746224600F05EF85346D8
:102440005A46C01A914110D311461846224600F050
:1024500016F82D1A67EB01084F462246012000218D
:1024600000F00DF817EB00094E41201EA4F1010405
:10247000DFDC484631462A464346BDE8F09F202A25
:1024800004DB203A00FA02F1002070479140C2F1CB
:10249000200320FA03F31943904070470048704727
:1024A0005463010040EA01039B0703D009E008C917
:1024B000121F08C0042AFAD203E011F8013B00F809
:1024C000013B521EF9D27047D2B201E000F8012B55
:1024D000491EFBD270470022F6E710B513460A46A4
:1024E00004461946FFF7F0FF204610BD421C10F8C5
:1024F000011B0029FBD1801A7047202A04DB203AF7
:1025000021FA02F00021704721FA02F3D040C2F113
:10251000200291400843194670470000064C074DC1
:1025200006E0E06840F0010394E8070098471034A3
:10253000AC42F6D3FFF768FE406D0100606D01000C
:1025400070B58C1810F8015B15F0070301D110F875
:10255000013B2A1106D110F8012B03E010F8016BA2
:1025600001F8016B5B1EF9D12B0705D40023521E25
:102570000DD401F8013BFAE710F8013BCB1A921C8D
:1025800003E013F8015B01F8015B521EF9D5A1428B
:10259000D8D3002070BD00002DE9F8430025DFF8F6
:1025A00094804FF4807601242F460095304601F048
:1025B000D5FE38B1D8F80403204203D0304601F0EC
:1025C000C3FE2543361D64007F1CB6B2082FEDD331
:1025D0004FF4BE74204601F0C1FE48B1204601F020
:1025E000B3FE45F000456A460121002001F07CFE63
:1025F00015F0FF0F16D0012600242E420ED008EB56
:102600008401D1F81005D1F81015C0F304200A4A4E
:10261000C1F3014152F8242002B190477600641CB6
:10262000082CEAD3002D02DA684602F0A7FFBDE8C5
:10263000F883000000600040680D00202DE9FC4791
:10264000814602F02BF900BF01F06CFF0028FBD19E
:102650002E485FEA090507682D482E494FF001060C
:10266000A0EB01004FEAD00006EB004417D0204653
:1026700029A1AA6902F074F8D5E90201CDE90001A7
:10268000D5E9002320462AA102F07AF8E8690090F3
:10269000D5E90423204634A102F069F803E020467E
:1026A0003BA102F059F81948001D0068800703D5C6
:1026B0002046444902F050F8DFF80C81002500BFA5
:1026C00006FA05F0384206D058F825201AB12046FF
:1026D0003EA102F045F86D1C1A2DF1D3380606D53F
:1026E0000A480C30026820463BA102F039F8380451
:1026F00006D506481030026820463FA102F030F8A7
:10270000484600F087F8BDE8FC87000028ED00E0AF
:10271000A06D0100706D01004841524420464155B2
:102720004C54206174203078253038580000000067
:10273000202052303A20203078253038582020523E
:10274000313A2020307825303858202052323A2033
:1027500020307825303858202052333A20203078E5
:10276000253038580000000020205231323A203005
:10277000782530385820204C523A202030782530A7
:10278000385820205053523A20307825303858009D
:10279000537461636B2076696F6C6174696F6E3A14
:1027A00020737461636B20706F696E746572206F43
:1027B00075747369646520737461636B20617265FD
:1027C000612E000030640100700C002043617573BD
:1027D000653A2025732E00004D656D4D616E616771
:1027E00065204661756C7420416464726573733A48
:1027F0002030782530385800427573204661756C5A
:102800007420416464726573733A203078253038DF
:1028100058000000BFF34F8F05480168054A01F4D6
:10282000E06111430160BFF34F8F00BFFDE700007F
:102830000CED00E00400FA0502490248091F09688E
:1028400000680847680C002002F024BAF0B5A449DB
:10285000A4484FF080540B68D4F830210078D4F8A5
:102860003411551CC0F3031006D0944601270026EE
:10287000BCF1060F03D00AE003F0FF0CF6E7B4F852
:102880002453DFF864C2C5F30425CCF80050DDB250
:10289000062D06D1032804D1DFF854C2934DCCF89D
:1028A0007450551C04D09446BCF1060F03D00AE0C6
:1028B00003F0FF0CF8E7D4F84452DFF838C2C5F350
:1028C0004235CCF80050DDB2062D08D1032806D1E0
:1028D000894DD5F800C02CF0807CC5F800C0551C8F
:1028E00004D09446BCF1060F03D00BE003F0FF0CBC
:1028F000F8E74FF08045C5F80C61C5F810617D4DD3
:102900002D1F2E60DDB2062D08D1032806D1DFF879
:10291000E4C103250CF1640CCCF80050DDB2062DA7
:1029200010D103280ED1DFF8D4C10525CCF8005012
:10293000724D78352F60714D08352E600CF104060C
:102940003F253560551C04D016460D46062E03D093
:102950005BE0DEB20546F9E7ED1E012D55D9684D65
:102960002D68684E3560664D2D1D2D68361D35600D
:10297000634D08352D68361D3560614D0C352D6869
:10298000361D35605E4D10352D68361D35605C4D49
:1029900014352D68361D3560594D18352D68594E42
:1029A00020363560564D1C352D68361D3560544D2A
:1029B00020352D68361D3560514D24352D68361D66
:1029C00035604F4D28352D68361D35604C4D2C3502
:1029D0002D68361D35604A4D30352D68494E4036DC
:1029E0003560474D34352D68361D3560444D3835DA
:1029F0002D68361D3560424D3C352D68361D3560DD
:102A00003F4D40352D68361D3560551C03D01646A8
:102A1000062E02D007E0DEB2FAE7D4F858523A4E5A
:102A200005F04F053560551C03D01346062B02D028
:102A300008E0DBB2FAE735480368DB0702D06FF045
:102A400001030360062A07D1C91E022904D93048B0
:102A5000016841F48061016027487438016841F4DD
:102A600070010160BFF34F8FBFF36F8FD4E94C103B
:102A70004FF01022062907D1C01E032804D9D2F82E
:102A800008021C491C310860D2F80002002803DB50
:102A9000D2F8040200281FDA012002F03DFD1521C2
:102AA000C2F800121B480368002BFCD0C2F80412C5
:102AB00001680029FCD0002002F02EFDBFF34F8FEB
:102AC0000D48F0380168144A01F4E06111430160D7
:102AD000BFF34F8F00BFFDE7114910480860F0BDFC
:102AE000E00F00F0E80F00F0403501400DF0ADBA06
:102AF00000C007403C050040FCED00E010560040DF
:102B00000404001020C50040E40E00400004004012
:102B10003C17004000E401400400FA050090D00397
:102B2000580D00200148006800470000FC0B002001
:102B300002E008C8121F08C1002AFAD17047704786
:102B4000002001E001C1121F002AFBD170470000E4
:102B50000121202803DA81400548014003E0402894
:102B600002DA2038814009B1012070470020704707
:102B7000FC06FFBD022000F061BA10B50446837860
:102B8000827A41780078C2DF002813D123796279F4
:102B9000E1882078D3DF00280CD1E1782078CDDFE0
:102BA000002807D1A178C90704D12189002901D0C3
:102BB0002078D1DF10BD10B590F82C1000291CD161
:102BC00090F82D10802918D140784E2803D04F2836
:102BD00001D0502811D10A2000F0F0FA08B100F01D
:102BE000A1F84FF0A040D0F8041580228A43C0F825
:102BF000082501F08001C0F80C1510BD70B5002447
:102C0000064D06E06868012110F8340002F0F6F87D
:102C1000641C28788442F5D3002070BD080C002085
:102C2000F8B516460C4605460A2A01D20720F8BD1B
:102C300002F0DEF918B902F0A1F90028F7D1134F1C
:102C4000102113487D603C70BE60FFF744FC0020FB
:102C5000C7E904000F4E0DE005EBC4003168009198
:102C600081788DF8011000780B4A694602F016F958
:102C70000028DCD1641EE4B2EED2BDE8F84005487D
:102C80000021064A001D00F05FB80000080C00207B
:102C9000140E002080600100D1390100C935010007
:102CA00010B572B601F0FAFD01F03CFC0028FBD132
:102CB00011481249401AC408012000EB044010A139
:102CC00001F04AFD11480068C00700D000BE022094
:102CD00000EB04400EA101F03FFDBFF34F8F0B4806
:102CE000E43801680E4A01F4E06111430160BFF36A
:102CF0004F8F00BFFDE70000B86D0100706D01004F
:102D0000466174616C206572726F7200F0ED00E0D4
:102D100053797374656D20726573657400000000EB
:102D20000400FA050EB500210091CDE901106A46B4
:102D300044F20100FFF7B4FF0EBD0000014800F0AF
:102D4000AABC0000480C002010B55AB100684FF032
:102D5000FF3401294261C0E9024400D00021016131
:102D6000002010BD072010BD38B511480823582297
:102D7000416800910F49006801F02EF8002815D134
:102D80000D4A69460D4800F08BFC04000ED101216C
:102D90000A4800F000FD0123094A1946074800F0DF
:102DA00052FC0649012008390870204638BD000051
:102DB00088600100340E00202D570100480C0020CF
:102DC000FFFF7F00F8B50446002617460D468DF834
:102DD0000060684600F042F8D4E90201C04370EA9E
:102DE000010005D09DF8000000F05CF80020F8BD5F
:102DF00000F0D4FD40197141C4E902019DF80000C2
:102E000000F050F8A761206900B125612146BDE8B6
:102E1000F840002002F0D4BE38B5044600208DF8FA
:102E20000000684600F01AF8D4E90201C04370EAD5
:102E300001000DD04FF0FF30C4E902009DF8000002
:102E400000F030F82146BDE83840012002F0B8BE5D
:102E50009DF8000000F026F8002038BD30B5EFF3F3
:102E6000108172B60D4A9468012324B103700029C1
:102E700000D162B630BD93604FF0E023D3F88051AB
:102E8000074C25401560C3F88041D3F88441546055
:102E90005A17C3F8842100220270E8E78C0E002044
:102EA000FC06FFBD0B498A68002A11D000280FD10B
:102EB000EFF3108072B60B684FF0E022C2F80031D9
:102EC0004B68C2F8043100228A60002800D162B643
:102ED000704700008C0E00202DE9F041064608687E
:102EE0000C46411C4FF0A0474FF0010506D005FAF3
:102EF00000F1C7F80815206801F0D0F96068411C9E
:102F000002D0002101F0B8F93168A069C1F82405A8
:102F1000607D227D31681043C1F86C05D4E9001250
:102F20003068C0F81425C0F80C15207D012815D193
:102F3000A068411C02D0002101F09EF9E068411C0C
:102F400005D08540C7F80855E06801F0A7F9D4E935
:102F500002123068C0F80825C0F81015BDE8F081ED
:102F60002DE9F041064608680C46411C4FF0A04789
:102F70004FF0010506D005FA00F1C7F808152068E2
:102F800001F096F96068411C02D0002101F07DF942
:102F90003168A069C1F82405607D217D326808434D
:102FA000C2F86C05D4E900123068C0F80C15C0F8FE
:102FB0001425207D012815D1A068411C02D00021D4
:102FC00001F063F9E068411C05D08540C7F8085559
:102FD000E06801F06DF9D4E902123068C0F8082504
:102FE000C0F81015BDE8F0812DE9FC410646C00788
:102FF0004FF000050ED0104F00240122385D0095DF
:1030000000231146019501F0DDF8641C042CF4D373
:1030100000F046F8B0070DD5074E0024361D0022FB
:10302000305D032300951146019501F0CBF8641C37
:10303000042CF4D3BDE8FC814060010007490B5C1F
:103040004FF0A041D1F804250120984020EA020366
:10305000C1F808351040C1F80C0570474060010008
:103060000249085C012101F064B9000040600100E0
:103070000249085C002101F05CB9000040600100D9
:103080000649095C4FF0A040D0F80405C84010F094
:10309000010000D0012080F0010070474060010075
:1030A00010B500242046FFF7DBFF641C042CF9D385
:1030B00010BD10B500242046FFF7DAFF641C042C75
:1030C000F9D310BD10B50246064B4FF0FF3000217A
:1030D0005C5C944201D1084610BD491C0429F7D319
:1030E00010BD0000446001002DE9F0470D46814607
:1030F000FFF7E8FF0446042836D2DFF874801B4847
:103100001C4EA8F10C0725B3012D0ED0022D2BD19A
:1031100004EB440030444578002D25D0B9680029DF
:1031200022D02846BDE8F047084704EB4401755C0F
:103130000E44717849B10E4A4FF48041093A8068D3
:10314000FFF740FE08B987F80390B17808F804103B
:10315000E2E78068FFF760FE04EB4401314418F8B1
:1031600004008D78A842D7D0BDE8F0874860010000
:103170008C0B00205C0D002070B50023042810D2B9
:103180000D4D00EB4004012A02D101290CD0002290
:10319000094E00EB4000304461B1012906D00229FC
:1031A00006D00723184670BD0E30C2B22A55F9E783
:1031B0004270F7E78270F5E75C0D0020044A014693
:1031C00000201279D20702D0084600F04DB87047AF
:1031D000800B002070B506461E480024C0E901613E
:1031E000B00720D50025012211462846FFF7C4FF6D
:1031F0006D1C0446042D02D2002CF4D013E094B9C7
:1032000040F2333204211448FFF70AFD04000AD1CA
:10321000FFF7F4FC040006D10F48104A0021001FFC
:10322000FFF792FD0446F00712D00120FFF7DCFE05
:1032300074B909480A4A00210C38FFF785FD0400DB
:1032400006D10548074A01210838FFF77DFD0446ED
:10325000204670BD800B0020546001003535010010
:10326000A13B0100752B01002DE9F05F6E4C054676
:1032700000266078B34618B184F801B000F078FCFD
:103280006A4F4FF47A694FF4C87A4FF00108182D4D
:1032900069D2DFE805F00C1313384754696E727B6E
:1032A000727BC58484848484B3B6B9BCC5C500F080
:1032B0005FFC3868FFF7B0FD06465CE00020FFF7D2
:1032C000DFFE00284FF0000008D0FFF7C9FE022DF6
:1032D00002D14FF4E16008E0484606E0FFF7C8FE7F
:1032E000022D01D1C82000E05046410CC0034FF42C
:1032F0007A72801841F10001257052000023FFF717
:103300008DF801462AE00020FFF7BAFE00284FF0B2
:10331000000004D0FFF7A4FE4FF44870E5E7FFF784
:10332000A7FEDFE70020FFF7ABFE00284FF000000C
:1033300002D0FFF795FECFE7FFF79AFED4E7002013
:10334000FFF79EFE00284FF0000002D0FFF788FE36
:1033500001E0FFF78DFE257040F6CD410022386870
:10336000FFF730FD064646E00020FFF767FE2570B8
:1033700008E0002051E025703DE084F80180012044
:10338000FFF75CFE002240F26661E8E784F8018006
:103390000120FFF753FE00224FF40051DFE7786869
:1033A000FFF73AFD0646D5F1110000D02EB10220FC
:1033B000FFF756FE84F802B01DE0012816D980B24E
:1033C000C8214843C117C90341EA5041C0034FF423
:1033D0007A72801841F1000152000023FFF71EF8B5
:1033E000014600227868FFF7EDFC06460220FFF751
:1033F0003FFE84F802803046BDE8F09F00F0B8FB45
:10340000B9E700F0B5FBB4E700F0B2FB04E000F070
:10341000AFFB0020FFF72CFE0120FFF729FEAAE7F3
:10342000FFF747FEA7E70000800B0020486001007F
:103430002DE9F84F0546861C00208DF800009146C6
:103440000F464FF0010A6846FFF708FD1B4C04F2D7
:103450001C4860683860D4E90101194F401A396886
:10346000081A0EE00121404600F0FBFC00F0A4FB2E
:103470000146404600F0F5FCD4E90101401A3968E4
:10348000081A401C8642EDD8B9F1000F03D0052080
:1034900065F3891002E0062065F39F5061683A6881
:1034A000114004EB8101C8606068304460609DF8A1
:1034B0000000FFF7F7FC5046BDE8F88F3C100020F5
:1034C000000D002070B50D4604460A2902D10D21D9
:1034D000FFF7F8FFA0682268411CA1601554D4E9E9
:1034E0000101814204D32046BDE8704000F071BD67
:1034F00070BD0000044881684068814201D101200C
:1035000070470020704700003C100020034630B593
:10351000074800210478426806E000BF02EBC100C2
:1035200005789D4203D0491CA142F7DB002030BD45
:10353000080C002000780221FFF7D6BD05494FF0A6
:10354000FF32082841F8202002D3084480F84820A0
:1035500070470000680D0020F0B54FF0FF3512B144
:103560000023082601E008230C260C4C05E000BFD0
:1035700054F823707F1C04D05B1CB342F8D3284658
:10358000F0BD26185DB286F8305044F82310002AAA
:10359000F5D1E11881F84800F1E70000680D00203E
:1035A0000249084490F9300070470000680D00207F
:1035B00010B5D0E90234D1E90220D11AA04101D3DB
:1035C000012010BD002010BD70B500240F4D10E08B
:1035D000686800EBC406307801F0C6FC71780129F8
:1035E00001D0012100E000214140307800F05CF979
:1035F000641C28788442EBDBD5E90401084303D03E
:10360000BDE8704002F0F8BA70BD0000080C002060
:1036100010B50021024800F02FFC80F3100010BD0F
:10362000581400204FF480328A400168C1F84823C2
:103630000068C0F8082370474FF4A07202EB8101C4
:1036400089B200F0A1B92DE9F04105460E464FF4CC
:10365000A07000EB860081B228684FF48034B4403B
:10366000984622F07F47C0F808432868C0F84843CE
:10367000286801F05BFA286800EB8600C0F8407506
:103680002868C0F84443B8F1000F02D02868C0F899
:103690000443BDE8F0810068D0F8040570470000DD
:1036A00070B54379234C44F823204279231D03EB62
:1036B000C202224C1579204A121BD4082DB10825CC
:1036C000022000EB04401EA130E005680A88C5F81E
:1036D000082590F904208978002A4FEA411104DB7B
:1036E00002F1E02282F8001405E002F00F0202F17C
:1036F000E02282F8141D90F904100122002909DB50
:1037000001F01F0502FA05F54909890001F1E021E0
:10371000C1F800514179002503EBC1010A714179DB
:1037200043F83100032000EB04400EA101F014F82F
:10373000284670BD640C0020986D0100706D01007A
:1037400052544320696E7374616E636520616C72BC
:103750006561647920696E697469616C697A656410
:103760002E0000005254433A20696E697469616CFE
:10377000697A65642E00000090F90400002809DBD6
:1037800000F01F02012191404009800000F1E0207B
:10379000C0F8001270470A46022100F07BB84FF4CF
:1037A000827100F0F1B80068012101607047006883
:1037B0000121416070472DE9F05F07460C464FF448
:1037C000A07000EB84001FFA80FA38684FF480364E
:1037D000A6409B4622F07F45C0F848633868C0F891
:1037E00008633868D0F8048500EB8402D2F840956D
:1037F000C2F840855146386801F098F9A9EB0800F5
:1038000020F07F40012806D1102001F0EFFA514648
:10381000386801F08BF93868D0F80485C0F8446343
:10382000A5EB080121F07F413868012900EB8400F5
:1038300010D0C0F840553868D0F804156FF07F4CB0
:103840006A1A521E22F07F42ACEB0B03934217D34D
:1038500062B118E06D1CC0F84055102001F0C6FAA6
:103860003868D0F8040540450AD10CE000EB84002C
:103870006D1CC0F840553868D0F80405884202D065
:103880000D20BDE8F09F01223146384600F002F8D5
:103890000020F6E70368C3F84413002A02D000684A
:1038A000C0F80413704700002DE9F84F0E46344964
:1038B000804601EB5001C007097801D00F0901E0F3
:1038C00001F00F074FF00009424601204946FEF77C
:1038D000D6FDDFF8B0A004460D46052F4ED2DFE836
:1038E00007F003161B282C00002E47D0012140466C
:1038F00002F076F88DF800906846FFF7AFFA504670
:10390000D0E904120C431543CAE9044532E00EB174
:10391000022114E0002112E04EB10321404602F0E2
:103920005FF84046BDE8F84F012102F073BB01216A
:1039300005E0002E22D1042101E02EB103214046F2
:10394000BDE8F84F02F04CB80021404602F048F8BC
:103950000021404602F05EFB8DF800906846FFF7BC
:103960007DFA5046E243D0E904341A4024EA0501C6
:10397000CAE904219DF80000FFF794FABDE8F88F2A
:10398000140E0020080C002010B5006842581AB12F
:1039900001F0CCF8012010BD002010BD10B50B487F
:1039A000FFF779FE094A083AD2E90434C018D2E98F
:1039B000063244F10001C31A71EB020204D24FF047
:1039C0008072801841F1000110BD0000480C0020F9
:1039D00010B5C0B2FFF79AFD0446007801F0C4FAB2
:1039E00001466078012801D0012000E0002090EA23
:1039F000010F08D00449D1E90401084303D1BDE80F
:103A0000104002F0F9B810BD080C00202DE9FC5F51
:103A10000E008346DDE90C47C6F100009846924649
:103A2000814600D40846012503E000BF90FBFAF070
:103A30006D1C5045FADAA84500D9454624B1002E40
:103A400001DB780700D5641EB80702D5B8F1000F76
:103A50000AD0F80708D13CB1A54205D2202158462A
:103A6000641EFFF72FFDF6E7002E02DA4E462D21E9
:103A700002E0780703D52B215846FFF723FD07F016
:103A8000030002280BD1B8F1000F08D13CB1A542C8
:103A900005D230215846641EFFF714FDF6E7CDE944
:103AA0000047434652463146584602F059FABDE8AF
:103AB000FC9F000070B50D46044600684FF4887105
:103AC00001F08EF94FF49071206801F089F94FF4FC
:103AD0009271206801F084F94FF4A271206801F01E
:103AE0007FF94FF4AC71206801F07AF9206812492F
:103AF000C0F804132068690740F30730090E002856
:103B000004DB00F1E02080F8001405E000F00F0075
:103B100000F1E02080F8141D206840F307300028F1
:103B200009DB00F01F02012191404009800000F1F3
:103B3000E020C0F8001170BD1003420002460020D2
:103B40001268530713D502F00300012802D002289F
:103B50000CD105E0C2F383100B68801C184404E00C
:103B60000223086803EB925210440860012070475A
:103B70000A4810B5807860B1002401E0022C06D01C
:103B80002046FFF76DFA641C042CF7D310BD032404
:103B9000F6E7BDE81040FFF783BA0000800B002075
:103BA00003480179C90702D00078FFF75DBB704771
:103BB000800B0020704700002DE9FF4100262448BB
:103BC00000F04CF92248001F074600F047F9214C4D
:103BD0002149A06800900D6800E0009869462840DF
:103BE00004EB80000C30FFF7A9FF0028F5D101AAF3
:103BF000009901EA050304EB8303491CDB6842F8E2
:103C00002030401C00910228F2D3019800F00300FC
:103C100001280BD0022810D10198032101EB90500C
:103C20000099BDF80A6001EB900005E00198BDF82D
:103C30000A60C0F3831008440090384600F00BF986
:103C400008B10098A06004B03046BDE8F0810000E3
:103C5000541400203C100020000D00200EB54FF43D
:103C60008041002000F0EEFD08B1FFF75BF800F0A6
:103C70004BFCFFF779F808B1FFF754F80021012059
:103C8000FFF7A8FA08B1FFF74DF800F0E5FE08B11C
:103C9000FFF748F800F0B0FF08B1FFF743F800F075
:103CA0004BFF08B1FFF73EF8124A07CA8DE807003C
:103CB0006846FEF762FF08B1FFF734F800210846B6
:103CC000C4DF08B1FFF72EF80B490320C1F8000745
:103CD0000A490B4A891AC90800EB014009A100F002
:103CE0003BFD00BF00F01EFC0028FBD100F0DCFE15
:103CF000F8E70000346001001C000050B86D0100BE
:103D0000706D0100414E542042726F6164636173B3
:103D100074205258206578616D706C6520737461F1
:103D2000727465642E0000002DE9F047C5881E1DE1
:103D3000B6FBF5F78946B6FBF5F1044605FB176CB3
:103D4000407916686843DDF820A0F718001F874205
:103D500000D9C61A166001E02468491E0029FBD16B
:103D6000A5EB0C078846B74216D818E004EB0C0008
:103D7000001D09EB0803BAF1000F3A4602D00146D4
:103D8000184600E01946FEF78DFB2468F61B4FF03D
:103D9000000CB844B54201D9374600E02F46002E4A
:103DA000E4D1BDE8F087000030B5024651B100F023
:103DB0005DFD0021074C08E034F821301568AB4266
:103DC00002D11160002030BD491C8142F4D305208E
:103DD00030BD00000000000010B531B1B2FBF3F4BB
:103DE00003FB14241CB1092010BD0E2010BD01607E
:103DF0000021416081608281C381084610BD70B599
:103E00000C460546FEF722FA002802D021882868D1
:103E1000084470BD10B50A8849888A4203D1FEF76C
:103E200057FA012010BD002010BD70B50C460546A4
:103E3000FEF731FA002802D061882868084470BD76
:103E400010B50A8849888A4203D1FEF71BFA01207F
:103E500010BD002010BD002100F009B8012100F0C4
:103E600010B808B56A46FEF788FA009808BD08B58C
:103E70006A46FEF768FA08BD08B56A46FEF74AFAD0
:103E800008BD08B56A46FEF751FA009808BD08B5A6
:103E90006A46FEF77FFA009808BD38B5044600254B
:103EA0008DF800506846FEF7D9FF216862680868FF
:103EB00090420ED9401E08600178238AE26801FB17
:103EC0000325227A2168101AC0B20A79824200D2F0
:103ED00008719DF80000FEF7E5FF284638BD38B5AB
:103EE000054600208DF800000C466846FEF7B6FF38
:103EF000E868298A201AB0FBF1F12A681068431C8F
:103F0000136001709DF80000FEF7CCFF38BD10B5BE
:103F100030B1017A42680368891AC9B21A6006E0B2
:103F20000E2010BD03681A68541C1C601170491ED5
:103F3000C9B2F7D2006800210171084610BDC2085D
:103F400000F007030120895C98400840704700009A
:103F5000F0B505460478154889B0164640F8242087
:103F6000124A0869121DA2F1080742F82400487F8E
:103F7000385520226846FEF795FA04942878385C74
:103F800048B10EB10A4A00E000226946281D01F03E
:103F9000A5F909B0F0BD0EB1064A00E0002269465D
:103FA00005F10C0001F064F8F3E70000F40B0020C9
:103FB0001D5E0100655C01000FB408B5039900297E
:103FC00004D004AA00926A4600F00FF801B05DF830
:103FD00014FB10B582680446002A05D0D4E9040316
:103FE000216898470020A06010BD2DE9FC4791464C
:103FF0000C00804676D014F8011B39B125290ED06B
:104000004046FFF75FFA20780028F4D198F80C00BA
:10401000002867D04046BDE8FC47FFF7DABF002024
:10402000012221782B291BD02D2902D0302908D13B
:1040300002E040F0010001E040F00200641C002AB0
:10404000EFD100252A290ED02178A1F130020A2AC9
:1040500011D205EB850201EB4205641C303DF1E70E
:1040600040F00400EAE7D9F800100B1DC9F8003051
:104070000968641C0D44217800232E290BD114F803
:10408000011FA1F130020A2A05D203EB830201EBE2
:104090004203303BF3E76C290DD068290BD0692926
:1040A00021D00BDC252918D0582931D063290ED016
:1040B000642915D117E014F8011FECE7702969D0C5
:1040C000732932D075291BD0782909D120E0D9F87D
:1040D0000000011DC9F8001001784046FFF7F2F911
:1040E000641C90E76CE0D9F800100A1DC9F80020A4
:1040F0000968CDE900500A224046FFF787FCEFE748
:10410000D9F800100A1DC9F8002009680A2206E043
:10411000D9F800100A1DC9F8002009681022CDE95D
:104120000050404601F01CFFDAE7D9F800100027E4
:104130000A1DC9F800200E68C00705D112E04046EC
:10414000761C7F1CFFF7BEF931780029F7D104E017
:10415000202140466D1EFFF7B5F9BD42C0D9002DA4
:10416000F6D1BDE74EB13046FEF7C0F9074604E090
:10417000202140466D1EFFF7A5F9BD4206D9002D4E
:10418000F6D103E04046761CFFF79CF93178002910
:10419000F8D1A5E7D9F80000011DC9F8001005689D
:1041A00030214046FFF78EF978214046FFF78AF923
:1041B00008200021CDE90001034610222946B0E77E
:1041C000BDE8FC8770B541EA4201DDE904564FF0D5
:1041D000A04441EA830141EA052104EB800041EA61
:1041E0000641C0F8001770BD70B541EA4201DDE933
:1041F00004564FF0A04441EA830141EA052104EB53
:10420000800041EA0641C0F8001770BD70B541EA70
:104210004201DDE904564FF0A04441EA830141EA3E
:10422000052104EB800041EA0641C0F8001770BD8B
:1042300070B541EA4201DDE904564FF0A04441EA7D
:10424000830141EA052104EB800041EA0641C0F800
:10425000001770BD1CB5002100910B460122019191
:10426000FFF7D4FF1CBD1CB5002100910B460122B5
:104270000191FFF7DDFF1CBD1CB500220B4600922B
:1042800011460192FFF7C2FF1CBD1CB500220B4670
:10429000009211460192FFF7CBFF1CBD1CB5002117
:1042A00000910B46012201911146FFF7AFFF1CBDA3
:1042B0001CB5002100910B46012201911146FFF728
:1042C000B7FF1CBD4FF0A04202EB8000D0F80027E2
:1042D00022F44032C0F80027D0F8002742EA01411A
:1042E000C0F800177047000038B5094B44181B6828
:1042F00000936B4608E000BF53F82010D1F820551A
:1043000020C2C1F82055401C8442F5D838BD0000B9
:104310007460010042094FF0000100D1491E00F015
:104320001F00012282400A4201D001207047002074
:10433000704701224FF0A043824011B1C3F8082515
:104340007047C3F80C257047034908B5084400219D
:1043500001600068009008BD0060004002494058BC
:10436000012800D0002070470060004030B5154A99
:1043700001460020D2F8104423460AE0DB681D798C
:10438000854205D1401C0A28F6DB4FF0FF3030BDD6
:104390001B68002BF2D1431CF9D0CB681871D2F8FE
:1043A000103443B1DB68CC681B682360D2F810245A
:1043B000D268116030BDC2F81014C96800220A60CA
:1043C00030BD00003C100020F0B595B01C461546ED
:1043D0000E4608461A9F00F019FB182109A8FEF79F
:1043E0007AF80E97CDE909540023082203A9304634
:1043F00000F021FB05980690BDF81000ADF81C00F8
:10440000BDF81200ADF81E0000208DF821000399C0
:10441000082501F00300012802D0022816D02FE061
:10442000C1F3C200C1F383178C0A8DF82000BA00D3
:104430002B460FA9304600F0FEFA09A8009006AB03
:104440003A460FA9204600F03DFA19E0C1F3C20038
:104450008C0D8DF82000082C01D2274600E008279B
:104460002B463A460FA9304600F0E5FA3D44E41BDE
:1044700009AB06AA39460FA800F08CF9002CEAD146
:10448000304600F0C9FA15B0F0BD7047012001F0C8
:1044900007BC0000084810B50178084A515C19B102
:1044A000001D00F0B5FF02E00C3000F0AFFEBDE8EB
:1044B0001040002001F0F4BBE40C0020F00B0020C1
:1044C00008B5034A00924023024AFFF77DFF08BD6A
:1044D0003D590100A40E00200A4A012902EBC00048
:1044E00007D0022907D0032907D0042907D00020CC
:1044F0007047022070470420704700797047407968
:1045000070470000706D010010B5FFF7BFFF042178
:104510000348FFF72BFF02490120C968487110BD0D
:10452000606D01002DE9F04F8DB0FEF7E3FF18B18B
:1045300000200DB0BDE8F08F7D4C4FF0000BC4F8AB
:1045400018B4BFF34F8F7B49A06802900D68D8461E
:10455000284004EB80000BE0D4F8180470B96168BF
:104560000298814201D8A160E2E7284004EB800074
:104570000C3002A9FFF7E2FA0028EDD1002009AAC9
:10458000029901EA050304EB8303491CDB6842F846
:104590002030401C02910228F2D3099800F0030158
:1045A000022902D001294DD0A8E0810D5022894670
:1045B000B2EB905F00D850210E4666F39F500990F1
:1045C00008315D4800F0D9F9070077D000F01EFAF5
:1045D0004346082209A9384600F035FA029908F145
:1045E000080A2940681A8000001D864223D9504DD0
:1045F0000C3530B1C2B204EB8101301A90460C3157
:1046000004E02946F2B2002590462846C6B2534639
:10461000384600F018FA0AEB08032DB13246294655
:104620004FEA070000F00FFA029909F1030001EBCD
:104630009000029039E004EB81015346324638463F
:104640000C31EFE7C0F38311062900D3062161F393
:1046500089100990C0F38310801C8100364800F057
:104660008CF907004AD000F0D1F94346082209A985
:10467000384600F0E8F908F1080800260FE0029833
:10468000434600EA0501401C04EB8101029004222C
:1046900038460C3100F0D7F908F10408761C099867
:1046A000C0F38310B042EAD847B1D4F81054D4F81C
:1046B000180478B1384600F0AFF934E01EE0E8683D
:1046C0004079012804D12A68284639461268904763
:1046D000E8680568002DF2D1384600F09DF98DF8A4
:1046E00000B06846FEF7BAFBD4F8180408B902987F
:1046F000A0609DF80000FEF7D5FB14E0D4F810444C
:1047000005E02168204689688847E0680468002C35
:10471000F7D10A480A49401AC008022101EB0040BB
:1047200008A100F019F8FEF7E5FE80F0010000E7AF
:104730003C100020000D0020D06D0100B86D01007C
:10474000706D01004261636B656E647320666C7509
:10475000736865640000000000231A4601F058B930
:1047600008B5012300926A4601F052F908BD3EB532
:10477000069C8DE81C0003236A4601F049F93EBD02
:104780007FB5DDE908458DE83C0004236A4601F069
:104790003FF97FBD2DE9F0470E4680461C46924604
:1047A000082940D894F80C90002020731946104630
:1047B00000F064FF0025B54206D218F805201BA1C1
:1047C0002046FFF7F9FB03E01AA12046FFF7F4FBB0
:1047D0006D1C082DEFD318A12046FFF7EDFB002537
:1047E000B54212D218F805707E2F08D8FDF756FE94
:1047F0000068C05D10F03E0F01D03A4600E02E2266
:104800000EA12046FFF7D8FB03E00DA12046FFF7DD
:10481000D3FB6D1C082DE3D301222146504600F046
:104820000FFF84F80C90BDE8F0870000202530329F
:1048300078000000202020007C000000256300009C
:1048400020000000064910B500200870054800F05F
:10485000E1F8002803D1044800F05AF9002010BD07
:104860003C100020D06D0100446201000248034961
:10487000401AC00870470000D06D0100706D010043
:1048800013B56846FFF790FA08B100201CBD024836
:10489000009950F831001CBD706D010070B50848DA
:1048A0000125D0F81044057007E0E06845712168E3
:1048B000204649688847E0680468002CF5D170BD3F
:1048C0003C1000202DE9FF4781460C9D00200C463E
:1048D0002F7B2873984616462946184600F0CEFED0
:1048E000072E42D2DFE806F004090F161F2A360011
:1048F00049462846FFF760FB37E0494628462268CC
:10490000FFF75AFB31E0D4E9002349462846FFF778
:1049100053FB2AE0A0680090D4E9002349462846CA
:10492000FFF74AFB21E0D4E90201CDE90001D4E917
:10493000002349462846FFF73FFB16E004F1080034
:1049400007C88DE80700D4E9002349462846FFF749
:1049500033FB0AE004F108000FC88DE80F00D4E92A
:10496000002349462846FFF727FB002229464046F8
:1049700000F066FE2F73BDE8FF872DE9F041058A40
:1049800080462D1F4819C01CB0FBF5F0C6B240464A
:10499000FFF783FA041E19D00020207101206071F6
:1049A000E58000272546761EC4F800800BE04046CF
:1049B000FFF773FA60B16179491C6171286005469F
:1049C0007F1CC0F80080B742F1D32046BDE8F081DB
:1049D000204600F002F80020F8E72DE9F041457983
:1049E00001466B1E002201E00968521C9A42FBD36B
:1049F0000F680146002605E038460C68FFF76FFA9D
:104A00002146761CAE42F7D3BDE8F0810121001D9E
:104A1000FFF727BAFFF77BBA10B504460121001D46
:104A2000FFF735FA10F0FF0F04D12046BDE8104023
:104A3000FFF7D3BF10BD1CB501920122009201AA5D
:104A4000FFF772F91CBD1CB501920022009201AA69
:104A5000FFF76AF91CBD00000E4910B50020487030
:104A6000091D0860BFF35F8F0B490C4800F02AF95D
:104A70000B48016841F0100101604FF0A0414FF078
:104A80008070C1F80C0507490320C1F80007002019
:104A900010BD0000D80C0020D0600100980E00204E
:104AA00010ED00E06000005038B500248DF80040A3
:104AB0006846FEF7D3F9F1EE100A20F09F00E1EE10
:104AC000100ABFF35F8F11494020C1F880029DF8A2
:104AD0000000FEF7E7F98DF800406846FEF7BEF9E2
:104AE0004FF0A0444FF08075C4F8085500F0E4F88A
:104AF00008B141DF02E020BF40BF20BFC4F80C5521
:104B00009DF80000FEF7CEF938BD000004E000E09B
:104B100082680021916082681161826851618268B7
:104B2000D1608268516080680160704708B50022DA
:104B300042504058009008BD3EB50D4A07CA8DE866
:104B400007006846FADF04004FF001050DD000F0C1
:104B500027F9024607480849401AC00805EB0040FB
:104B600006A1FFF7FDFD20463EBD0C480570FAE7A3
:104B7000C4620100C86D0100706D010073645F6163
:104B80006E745F656E61626C65282920726574754C
:104B9000726E65642025732E00000000570D002002
:104BA00030B513488FB0007800281ED00DF12D04C9
:104BB0000BAD6A4621462846C1DF30B1052814D026
:104BC0000FB0BDE83040FEF7ADB80A490CA800F0C0
:104BD00079F806E0D0E90021684690470CA800F07B
:104BE00088F80E980028E4D0F4E70FB030BD00003C
:104BF000570D0020B86201007CB5194C207808B12F
:104C000008207CBD0120A070002000F069FE112862
:104C10001AD0002000F07CFE1248002600680190A7
:104C20008DF800606846FEF719F90FA2184901A82F
:104C300010DF05000AD0002020709DF80000FEF76C
:104C400031F92DB128467CBD00207CBD0120F3E761
:104C5000A670667000F092FE012000F059FEF3E7A6
:104C6000540D002060620100333833312D3532316C
:104C7000642D376466392D323464382D65666633A9
:104C80002D343637622D323235662D613030650075
:104C9000A12C01000EB50749684600F013F805E0A5
:104CA000D0E900108847684600F023F802980028F1
:104CB000F6D10EBD7C62010001480078704700000B
:104CC000540D0020016009684160AFF3008010B509
:104CD000D0E900215368994201D1002104E0D1E9D3
:104CE0000034A34202D01946816010BD08314160F2
:104CF000F0E7816800290BD0026892680A4482605C
:104D000041684B689A4203D108314160FFF7DFBF29
:104D1000704770B50D460646446804E0B2682946FF
:104D2000904718B1246820680028F7D120682860CF
:104D3000256070BD406800687047416808680028B9
:104D400001D002680A60704702460020526806E0FF
:104D50008B4203D108681060012070471A4613681F
:104D6000002BF5D1704700000C4A10B502F5947382
:104D70000EE0991AC91001EBD171491002EBC10183
:104D80000C68844201D90B4602E005D201F1080209
:104D90009A42EED3002010BD486810BDF0600100BB
:104DA00000B5FFF7E1FF002800D1014800BD000079
:104DB000DC6001004058002800D00120704708B591
:104DC000002242504058009008BDD0F8040308402B
:104DD00000D0012070474058002800D001207047C3
:104DE00008B5002242504058009008BD002802D06B
:104DF0000149800108477047A16001002DE9F04199
:104E00000E46054600F0A2FB0028284619D0FEF702
:104E1000C7FB083800F00CFC032802D001280ED094
:104E200007E04FF0A040D0F81005E84010F0010F67
:104E300005D003212846BDE8F041FFF743BA02211F
:104E4000F8E700F08FFB002822D02846FEF7A8FBE9
:104E500004464FF4807000EB84000E4F81B207EBE4
:104E60008400D0F8102542F00102C0F81025084651
:104E7000FFF76AFA002E0BD02846FEF791FB064991
:104E800051F82000002803D00120A040C7F80403F7
:104E9000BDE8F08100600040680D00202DE9FC4174
:104EA000DFF8B880044608EB0400002790F93000D2
:104EB0001346C0170E46401C01D008274AE0B078C0
:104EC0001946C0F340022046FEF746FB0546401C4B
:104ED0003FD0B078410717D4C0070AD04FF0A040A8
:104EE00000EB8400D0F8001721F00201C0F8001791
:104EF00007E000217378204600910A460191FFF7F0
:104F000073F9204600F014FBB078800718D51448D8
:104F1000317800EB8500D0F81025124B1A40C0F80C
:104F200010254FF4F8524FF4403302EA042203EA0A
:104F300001410A43D0F810150A43C0F8102509E0D2
:104F400008EB0500327810F8481F41EA8211017021
:104F500000E004273846BDE8FC810000680D002011
:104F600000600040FFE0FCFF4FF0A041D1F81015B9
:104F7000C14011F0010000D00120704770B5194DFB
:104F800095F8580008B1082070BD0024661E204620
:104F9000FFF7C0F910B1281980F83060641CE4B242
:104FA000202CF4D300242046FEF7C8FA641CE4B297
:104FB0000C2CF8D300200D4968650B4CC02081F8FB
:104FC000000401264020891FC1F800014FF4BE7083
:104FD000FFF7BAF9A004C4F8040385F8586000206C
:104FE00070BD0000680D00200060004006E000E099
:104FF000034890F85800002800D0012070470000B6
:10500000680D00200121B1EB507F01D101207047D4
:105010000020704738B50D4600F07CFB040014D02A
:1050200000208DF800006846FDF718FF207928B1B0
:105030009DF80000FDF736FF112038BD01202560E6
:1050400020719DF80000FDF72DFF002038BD10B540
:1050500000F060FB002802D000210160017110BD4A
:105060000149024800F044BEC40D00200020004069
:105070002DE9F0410546007916460F4600EB400148
:105080002D4A01EBC00102EB810494F82A1011B102
:105090000820BDE8F081294951F820102868FFF761
:1050A000B9FF08B11120F4E739462846FDF714FF8F
:1050B00066603869206030004FF001062FD03F7FD6
:1050C0004FF48E712868FFF77AFE4FF4A2712868BA
:1050D000FFF775FE28681A49C0F8041328684FEADC
:1050E000471140F30730002804DB00F1E02080F88E
:1050F000001405E000F00F0000F1E02080F8141D1E
:10510000286840F30730002809DB00F01F0106FA89
:1051100001F14009800000F1E020C0F8001128688A
:105120000421C0F800150020A061E06184F8290086
:1051300044F8140FA675ACE7C40D00207860010098
:10514000800002002DE9F05F054600790B4600EB78
:10515000400101EBC000244901EB8004284600F027
:1051600045F810B11120BDE8F09F62614FF00009D1
:10517000C4F82090A36084F828904FF48E784E46AF
:1051800041462868FFF71BFE28684FF0010AC0F867
:1051900008A02146286800F03BFD606808BBD5F8F0
:1051A00000B067690FE000BF94F8280008B10F262F
:1051B00015E041465846FFF7FDFD0028F4D0214692
:1051C000584600F025FD206AB842F2D357464146C2
:1051D0002868FFF7EFFD0028F9D02868C760C4F8F9
:1051E00014903046BFE70000C40D0020007900EBAA
:1051F000400101EBC000044901EB80004069002838
:1052000000D0012070470000C40D00202DE9F047B8
:10521000044600794FF0000900EB400101EBC000AB
:10522000284901EB80072068C0F800957868B0B184
:1052300020682549C0F80813206840F3073000288B
:105240000DDB00F01F02012191404009800000F1B8
:10525000E020C0F88011BFF34F8FBFF36F8F20683D
:10526000D0F80C25D0F81485D0F80865D0F8105582
:105270004FF0FF31C0F81415C0F80C152068C0F8C5
:105280000815C0F81015501C02D01046FEF7E2FFBA
:10529000B8F1FF3F02D04046FEF7DCFF681C02D0A9
:1052A0002846FEF7D7FF701C02D03046FEF7D2FF2B
:1052B0002068FFF7CCFE87F82A90C7F80490BDE875
:1052C000F0870000C40D002084020200014902485A
:1052D00000F0BCBDF00D0020002000402DE9F041A1
:1052E0000546164600790F46154A00EBC00102EB51
:1052F000810494F8201011B10820BDE8F081114913
:1053000051F820102868FFF785FE08B11120F4E756
:1053100039462846FDF724FE6660386920601EB1D4
:10532000397F2846FEF7C6FB28680821C0F800151B
:105330000020A061E0616061012184F82010DCE7B9
:10534000F00D00207C6001002DE9F04704460E4678
:105350000079274900EBC00001EB80051746304675
:10536000FFF750FE30B1204600F044F820B1112084
:10537000BDE8F0871020FBE76F61AE604FF49077D7
:105380004FF0000839462068FFF72AFD4FF4AC764D
:1053900031462068FFF724FD2068AA686969C0F8D3
:1053A0004425C0F8481520684FF00109C0F808905E
:1053B0006868D0B9BA4651462068FFF70CFD074629
:1053C00031462068FFF707FD0743F4D010B14FF0D6
:1053D0000F0808E02068C0F80C9031462068FFF7FD
:1053E000FAFC0028F9D0002068614046C0E70000C0
:1053F000F00D00200079054900EBC00001EB8000B2
:105400004069002800D0012070470000F00D002006
:105410002DE9F047064600793D4900EBC00001EB5D
:105420008005346868680127A8B13A49C4F80813B0
:10543000306840F3073000280DDB00F01F0107FA49
:1054400001F14009800000F1E020C0F88011BFF3B5
:105450004F8FBFF36F8FD4F8000220F02000C4F804
:105460000002A8694FF4A27820B141462046FFF718
:10547000B7FC67604FF4AC7949462046FFF7B0FCB3
:10548000E760474649462046FFF7A5FC0028F9D0CB
:10549000A86928B139462046FFF79DFC0028F1D0C5
:1054A0004FF0000AC4F800A53068D0F80C25D0F8F9
:1054B0001495D0F80885D0F810754FF0FF31C0F87A
:1054C0000C15C0F814153068C0F80815C0F8101590
:1054D000501C02D01046FEF7C6FEB9F1FF3F02D0C5
:1054E0004846FEF7C0FE781C02D03846FEF7BBFEE9
:1054F000B8F1FF3F02D04046FEF7B5FE2046FFF769
:10550000A6FD85F820A0C5F804A0BDE8F08700003E
:10551000F00D0020100342000349086003480168B1
:105520000029FCD07047000004E5014000E4014080
:1055300010B50549C20800F00703885C01249C40AF
:105540002043885410BD0000BC0D002004490844CD
:1055500090F93000082801DB0120704700207047D7
:10556000680D00200449084490F93000082801D251
:105570000120704700207047680D00202DE9F05F82
:105580002A4F06464FF0A04A4FF0010B002438196D
:1055900090F95010491C3CD090F85000314620F052
:1055A000C0052846FEF7CBFC20B3204600F040F8AB
:1055B00081460AEB8500D0F80007C0F30148B8F136
:1055C000020F18D002212846FEF77CFE0BFA05F1E7
:1055D000CAF820152846FDF7E3FF57F820204AB106
:1055E0004846B9F1030F11D0B8F1020F05D0B8F158
:1055F000030F07D00DE00321E5E74846B9F1010F9D
:1056000004D006E04846B9F1020F02D1014628460F
:105610009047641C042CBAD3324601210020FEF7C7
:1056200063FE30680028B1D1BDE8F09F680D00200E
:105630000249084490F8500080097047680D002026
:1056400010B50C46017A052908D0407A38B10848CF
:1056500008A102682046FEF7AFFC00E01AB106A1DF
:105660002046FEF7A9FC2046BDE81040FEF7B1BC7D
:10567000300D0020257300000D0A000038B5C388E6
:105680000D46044633B114A0009015A216A1284679
:10569000FEF792FC217A05291CD0607A48B1A088D7
:1056A000FEF71AFF164951F8202016A12846FEF7EA
:1056B00083FCA0880021FFF7E3F803461049207A15
:1056C000143951F8202001B02846BDE830400EA121
:1056D000FEF772BC38BD00001B5B306D000000009F
:1056E0001B5B313B33316D0025734C6F6773206456
:1056F000726F70706564202825642925730D0A0077
:10570000300D0020257300003C25733E2025733AA0
:10571000200000000349884201D10348704700205F
:105720007047000000200040FC0B002070B50546CB
:10573000FEF735F8134C40B1D4E904024FF0807104
:10574000411842F10000C4E9041000212846FDF789
:1057500073FF30B1606820B1606800F0A5F90020E7
:10576000606001212846FDF767FF18B1FEF716F9C2
:10577000C4E90601284600F0E3F92846BDE8704078
:1057800000F038B8400C00202DE9F04100260E70E2
:10579000D0E902740D468046FEF700F9381A00235E
:1057A00064EB01011A461B1A8A4115DAB0F5350F70
:1057B00004D3FDF7C3FA0D49421800E03A464FF40E
:1057C000960300210A48FDF7F6FF10B10D2807D017
:1057D0000AE00120BDE8F08100210548FDF722FF25
:1057E000404600F061F928700020F3E7FFFFB400A5
:1057F000480C0020F8B5204C064600251F48FFF74E
:1058000099FA10B3D0E90210CA4372EA000224D018
:10581000626882B16368D3E90223891A984127D26A
:105820006068D0E90210C94371EA000103D06168E1
:105830001248FFF76EFA00F0CDF807466946FFF709
:10584000A3FFB0B1606858B10DE0606800280FD1C7
:105850003046BDE8F840FDF7AABF00F0BBF8CDE741
:105860003046FDF7A0FF67609DF800000028C5D115
:10587000F8BD6560C2E70000400C002090600100A8
:1058800070B5054688690C4600284FF48471284697
:105890000AD0FFF794FAD5F81805626AE1688854CF
:1058A000606A401C606270BDFFF789FAD5F8180580
:1058B00070BD1FB501238DF80030CDE90121D0E97D
:1058C0000012684690471FBD1FB501238DF80030B8
:1058D000CDE90121D0E90012684690471FBD0000C4
:1058E0003EB5044609496846FFF7ECF908E000BFF9
:1058F000D0E900212046904730B16846FFF7F9F91A
:1059000002980028F4D13EBD11203EBD6462010022
:105910003EB5044608496846FFF7D4F907E000BFE2
:10592000D0E90021204690476846FFF7E2F9029847
:105930000028F5D13EBD00007062010070B50D4C2D
:105940000020D2B22070201D0B4D0378EB5C1BB100
:10595000001DFFF7F9FC02E00C30FFF7F3FB08B184
:10596000FDF7E0F96078002802D021780029FAD00C
:1059700070BD0000E00C0020F00B002010B51620D8
:10598000FDF7E6F8A0B1114890F800044009082896
:1059900011D20121814011F0EC0F0CD00C4882682B
:1059A0004FF480016AB1016841F48001016010BDCB
:1059B00042F2010001E042F20200BDE81040FDF7B2
:1059C000B1B94FF0E020C0F8001110BD16E000E0C2
:1059D0008C0E00200148FFF7B0B900009060010074
:1059E000C207002A03D000BF4FF00F0201E04FF0C2
:1059F000F00201D04FEA0111044B03EB5003187879
:105A000000EA020040EA010018707047140E0020FE
:105A10002DE9F84F074622489146884605681E46FC
:105A2000012269461846FDF703FDDFF878A060B350
:105A3000009800210446801C0AE000BF00EA05022D
:105A400059F821C00AEB8202401C491CC2F80CC064
:105A5000B142F3D34FEA1749FDF7DAFD611C294043
:105A60000AEB810149EA00422C40CA600AEB84013A
:105A7000C86867F3C50066F3891068F39F2020F0BB
:105A80000300401C20F00400C8609AF8000001E008
:105A9000FEF748FD0028FBD1FEF78CF8BDE8F88F33
:105AA000000D00203C100020F8B5044622480026D6
:105AB000007878B374B3FDF771FFD4E90232C01AED
:105AC00091412DD300258DF800506846FDF7C6F9A9
:105AD000206910B9681EC4E902009DF80000FDF7B6
:105AE000E1F9D4E9051088478DF800506846FDF7C4
:105AF000B5F922697AB1D4E90210CB4373EA000305
:105B000009D089186841C4E902109DF80000FDF72A
:105B1000C9F909E00DE09DF80000FDF7C3F908E0C0
:105B2000D84370EA020004D021460448FFF7F1F898
:105B300001263046F8BD0000400C002090600100B6
:105B400038B51D4D69462868FEF76FF91B4C30E0EB
:105B5000017821B101290ED0022922D117E0416834
:105B6000D1E90220D24372EA00021AD0124808306A
:105B7000FFF7CFF815E041686068814202D100204C
:105B800060600EE00C480830FFF7DEF809E0FFF730
:105B900021FF20B14FF0FF31C0E90211F7E70120EA
:105BA000207069462868FEF735F969462868FEF7CF
:105BB0003CF90028CCD138BD88600100400C0020A1
:105BC000F8B50B4C0D46064669462068FEF717F9F6
:105BD00058B10670456069462068FEF731F910B18A
:105BE0000448FDF7C9FD0020F8BD0420F8BD000001
:105BF00088600100480C0020034880684108034881
:105C000000224068FDF7DEB8080C0020806001002B
:105C100070B50C4605464FF48E71FFF7D0F8216A37
:105C2000A068415C206A401C2062C5F81C1570BD4C
:105C30001FB500228DF80020029181680191426118
:105C4000D0E90012684690471FBD1FB500228DF8AD
:105C500000200291816801914261D0E900126846FA
:105C600090471FBD1FB50A4601788DF800104168A6
:105C70000191017A8DF80810C0680390044850F82B
:105C80002210001F50F82220684690471FBD0000D8
:105C9000F80B00200149012008707047E00C00203B
:105CA00010B588B0044620220E496846FCF7FAFB7E
:105CB00006200090C01F0190029003904FF0EB70FF
:105CC00006900CB1084A00E0002269460748FEF73A
:105CD0003FF908B1FDF726F80448001F447008B0EA
:105CE00010BD000024620100955C0100E40C00205E
:105CF0002DE9FF470C4605464FF40071FFF765F8A4
:105D000001274FF40178002618B34FF492794946E1
:105D10002846FFF74FF8E0B149462846FFF74FF80D
:105D2000C5F8088394F8290000B96F6002208DF847
:105D30000000D5F88004C5F880040390A0690290A3
:105D4000E0680190A661E661D4E9001268469047D8
:105D500028E004212846FFF738F818B34FF484717F
:105D60002846FFF727F8E8B121462846FFF788FDC7
:105D7000616AA069884215D1E06938B1E268616A58
:105D8000A0612069E6616662E06008E094F829009D
:105D900000B96F60C5F80883A661E268616A2046B1
:105DA000FFF787FD4FF48E7841462846FFF702F84B
:105DB00080B16069216A814202D294F8280028B338
:105DC00041462846FEF7FBFF606918B1616920462D
:105DD000FFF72EFF4FF4A27841462846FEF7EAFF70
:105DE000002818D041462846FEF7E9FF94F829001C
:105DF00000B12F60A06900280DD0A661E268616A39
:105E000004B02046BDE8F047FFF753BD21462846C1
:105E1000FFF7FEFEDEE7BDE8FF8700001FB50A467C
:105E200001788DF8001041680191017A8DF8081011
:105E3000C0680390044850F82210001F50F8222038
:105E4000684690471FBD0000F80B00202DE9FF4178
:105E50000C464FF4927705463946FEF7BCFF002604
:105E6000B8B139462846FEF7BBFF02208DF8000086
:105E7000D5F88004C5F880040390D5F83C0502905D
:105E8000E0680190A661E661D4E900126846904797
:105E900023E04FF4887739462846FEF79CFFE0B1AF
:105EA00039462846FEF79CFFD5F83C15A069884284
:105EB00013D1E06960B1E268D5F8000220F020005B
:105EC000C5F80002E069A0612069E661E06001E0D8
:105ED000A661E2682046FFF7F7FC4FF4A277394647
:105EE0002846FEF778FF68B139462846FEF778FF66
:105EF000A06938B1A661E661D5F83C152046E26894
:105F0000FFF7E2FC4FF4907631462846FEF763FF38
:105F100060B131462846FEF763FF0120E860606902
:105F200020B1D5F84C152046FFF78FFE4FF4AC7624
:105F300031462846FEF74FFF00280ED0314628464E
:105F4000FEF74EFF6069002807D0D5F84C1504B065
:105F50002046BDE8F041FFF778BEBDE8FF810000B4
:105F60002DE9F05F8346DDE90A4A994690460D46E1
:105F70000846012703E000BFB0FBF8F07F1C404556
:105F8000FAD2B94500D94F465FEACA7012D18CB136
:105F90005FEA8A7002D5B9F1000F01D0202607E030
:105FA000302605E031465846641EFDF78BFA0CB1E9
:105FB000A742F7D35FF00106B9F1010F02D9A9F1A9
:105FC000010903E0B5FBF6F0404502D306FB08F6F5
:105FD000F2E7DFF83C9000BFB5FBF6F000FB16558A
:105FE00019F800105846FDF76DFAB6FBF8F6002ECA
:105FF000F2D15FEACA7009D0002C07D0A74205D2BF
:1060000020215846641EFDF75DFAF5E7BDE8F09FD4
:10601000A660010070B50C460546FDF777FA00282A
:1060200007D04268002A04D021462846BDE87040C7
:10603000104770BD0000004200000000002000007A
:10604000111213140D0E0F10900B0020B00B002036
:10605000D00B00200D000300E93001000E0003000A
:10606000E93001000F000300E930010010000300D7
:10607000E93001000000005061500100CD520100E4
:1060800003000000200C0020240E00200100060068
:1060900000000000600C0020B1350100000000008D
:1060A0000338FDD87047303132333435363738391C
:1060B000414243444546000000000000000000004B
:1060C00000000000000000000000000000000000D0
:1060D000B8600100D060010004000000556E6B6ED6
:1060E0006F776E206572726F7220636F6465000057
:1060F00000000000E86B010001000000946A01004C
:10610000020000008868010003000000086B010025
:10611000040000005C6B0100050000003C6A010007
:1061200006000000D869010007000000446B010070
:1061300008000000506A010009000000B46A010074
:106140000A000000D06B01000B0000007068010025
:106150000C000000686A01000D000000386C0100AE
:106160000E000000346B01000F000000706B010096
:1061700010000000A46B0100110000004C6C010035
:1061800012000000206C010013000000BC6B010035
:1061900080000000F0690100810000002C6901000E
:1061A00082000000EC68010083000000CC68010060
:1061B000840000000869010085000000146A0100E5
:1061C000860000001C6B010090000000B86901000F
:1061D00091000000AC680100920000007C6A0100A0
:1061E00000820000846B010001820000D06A01007F
:1061F00002820000EC6A010000840000486901008E
:1062000001840000F46B0100028400009069010029
:10621000038400006C690100C14401009544010041
:106220008B440100FFFFFFFFFFFFFFFFFFFFFFFFAA
:10623000FFFFFFFF00000000000000000000D6018B
:1062400006010000A40F00207F00000024100020A1
:10625000000000000000000000000000000000003E
:1062600001000007506201006062010008000000A8
:106270008862010098620100080000009862010035
:10628000A8620100080000000000000000000000FB
:106290000000000000000000EC6D0100F46D010042
:1062A00000000000000000000000000000000000EE
:1062B000E46D0100EC6D0100A8620100B86201000C
:1062C00008000000010020005C1400208000000095
:1062D00000404040404040404040414141414140F9
:1062E00040404040404040404040404040404040AE
:1062F000400502020202020202020202020202023D
:106300000220202020202020202020020202020241
:106310000202909090909090101010101010101099
:1063200010101010101010101010101002020202A5
:1063300002028888888888880808080808080808E9
:1063400008080808080808080808080802020202E5
:1063500040000000D16201004461746120627573E5
:10636000206572726F72202872657475726E20617A
:1063700064647265737320696E2074686520737439
:1063800061636B206672616D65206973206E6F7446
:106390002072656C6174656420746F207468652078
:1063A000696E737472756374696F6E20746861745A
:1063B0002063617573656420746865206572726F0F
:1063C00072290000446174612062757320657272E5
:1063D0006F72202850432076616C7565207374615C
:1063E000636B656420666F722074686520657863EE
:1063F000657074696F6E2072657475726E20706F4F
:10640000696E747320746F2074686520696E73748C
:1064100072756374696F6E2074686174206361754E
:1064200073656420746865206661756C742900006A
:1064300043617573653A204275734661756C7420CB
:106440006F6E206120766563746F72207461626C78
:1064500065207265616420647572696E6720657875
:1064600063657074696F6E2070726F6365737369B2
:106470006E672E005468652070726F636573736F6A
:106480007220686173206578656375746564206146
:106490006E2053444956206F722055444956206956
:1064A0006E737472756374696F6E20776974682097
:1064B000612064697669736F72206F662030000016
:1064C0005468652070726F636573736F72206861C2
:1064D0007320617474656D7074656420746F2065D9
:1064E00078656375746520616E20696E737472756A
:1064F0006374696F6E2074686174206D616B65737D
:1065000020696C6C6567616C20757365206F66200F
:10651000746865204550535200000000546865209F
:1065200070726F636573736F72206861732061743A
:1065300074656D7074656420616E20696C6C65674C
:10654000616C206C6F6164206F66204558435F5218
:10655000455455524E20746F207468652050432C6A
:10656000206173206120726573756C74206F6620E2
:10657000616E20696E76616C696420636F6E74650C
:1065800078742C206F7220616E20696E76616C6960
:1065900064204558435F52455455524E2076616CF5
:1065A000756500005468652070726F636573736F62
:1065B0007220617474656D707465642061206C6F05
:1065C0006164206F722073746F7265206174206142
:1065D000206C6F636174696F6E20746861742064ED
:1065E0006F6573206E6F74207065726D69742074AE
:1065F0006865206F7065726174696F6E00000000DD
:1066000041204D656D4D616E616765206661756CF9
:1066100074206F6363757272656420647572696E4D
:106620006720666C6F6174696E672D706F696E7438
:10663000206C617A7920737461746520707265735F
:106640006572766174696F6E0000000041206275AA
:1066500073206661756C74206F6363757272656414
:1066600020647572696E6720666C6F6174696E670D
:106670002D706F696E74206C617A79207374617407
:106680006520707265736572766174696F6E000063
:106690005468652070726F636573736F72206861F0
:1066A0007320617474656D7074656420746F206507
:1066B00078656375746520616E20756E64656669C2
:1066C0006E656420696E737472756374696F6E00B1
:1066D000496E737472756374696F6E20627573208E
:1066E0006572726F720000005468652070726F638B
:1066F0006573736F722068617320617474656D7067
:1067000074656420746F2061636365737320612016
:10671000636F70726F636573736F7200556E73741D
:1067200061636B20666F7220616E206578636570AF
:1067300074696F6E2072657475726E206861732063
:10674000636175736564206F6E65206F72206D6F75
:106750007265206163636573732076696F6C617421
:10676000696F6E7300000000537461636B696E673C
:1067700020666F7220616E20657863657074696F42
:106780006E20656E74727920686173206361757321
:106790006564206F6E65206F72206D6F7265206179
:1067A00063636573732076696F6C6174696F6E7370
:1067B000000000005468652070726F636573736F2A
:1067C0007220686173206D61646520616E20756E52
:1067D000616C69676E6564206D656D6F72792061AB
:1067E0006363657373000000556E737461636B209F
:1067F000666F7220616E20657863657074696F6E74
:106800002072657475726E206861732063617573A0
:106810006564206F6E65206F72206D6F7265204217
:1068200075734661756C7473000000005374616386
:106830006B696E6720666F7220616E206578636594
:106840007074696F6E20656E747279206861732050
:10685000636175736564206F6E65206F72206D6F64
:106860007265204275734661756C74730000000098
:106870004E52465F4552524F525F494E56414C4927
:10688000445F4441544100004E52465F4552524FCE
:10689000525F534F46544445564943455F4E4F540B
:1068A0005F454E41424C4544000000004E52465F59
:1068B0004552524F525F464541545552455F4E4FE7
:1068C000545F454E41424C45440000004E52465FE5
:1068D0004552524F525F4D555445585F554E4C4F9F
:1068E000434B5F4641494C45440000004E52465FD1
:1068F0004552524F525F4D555445585F4C4F434B94
:106900005F4641494C4544004E52465F4552524F06
:10691000525F4D555445585F434F4E445F494E4971
:10692000545F4641494C4544000000004E52465FCA
:106930004552524F525F4D555445585F494E495448
:106940005F4641494C4544004E52465F4552524FC6
:10695000525F424C455F495053505F52585F504B15
:10696000545F5452554E4341544544004E52465F85
:106970004552524F525F424C455F495053505F5011
:106980004545525F52454A45435445440000000086
:106990004E52465F4552524F525F424C455F4950FE
:1069A00053505F4C494E4B5F444953434F4E4E4505
:1069B00043544544000000004E52465F4552524F3A
:1069C000525F4150495F4E4F545F494D504C454DC9
:1069D000454E5445440000004E52465F4552524FCA
:1069E000525F4E4F545F535550504F5254454400E0
:1069F0004E52465F4552524F525F4D4F44554C45A3
:106A00005F4E4F545F494E495449414C495A4544A1
:106A1000000000004E52465F4552524F525F4D4FAC
:106A200044554C455F414C52454144595F494E499C
:106A30005449414C495A4544000000004E52465FBB
:106A40004552524F525F4E4F545F464F554E440091
:106A50004E52465F4552524F525F494E56414C4945
:106A6000445F5354415445004E52465F4552524F85
:106A7000525F444154415F53495A45004E52465F6C
:106A80004552524F525F494F5F50454E44494E4721
:106A9000000000004E52465F4552524F525F53561F
:106AA000435F48414E444C45525F4D495353494E14
:106AB000470000004E52465F4552524F525F494ECA
:106AC00056414C49445F4C454E4754480000000035
:106AD0004E52465F4552524F525F4452565F545792
:106AE000495F4552525F414E41434B004E52465F13
:106AF0004552524F525F4452565F5457495F455278
:106B0000525F444E41434B004E52465F4552524FF6
:106B1000525F494E5445524E414C00004E52465F22
:106B20004552524F525F53544F524147455F46556D
:106B30004C4C00004E52465F4552524F525F4E55EC
:106B40004C4C00004E52465F4552524F525F494EE8
:106B500056414C49445F504152414D004E52465FB0
:106B60004552524F525F4E4F5F4D454D0000000061
:106B70004E52465F4552524F525F464F5242494431
:106B800044454E004E52465F4552524F525F44526A
:106B9000565F5457495F4552525F4F5645525255C2
:106BA0004E0000004E52465F4552524F525F494ED2
:106BB00056414C49445F4144445200004E52465FA6
:106BC0004552524F525F5245534F55524345530021
:106BD0004E52465F4552524F525F494E56414C49C4
:106BE000445F464C414753004E52465F5355434322
:106BF000455353004E52465F4552524F525F424CEE
:106C0000455F495053505F4348414E4E454C5F41AC
:106C10004C52454144595F45584953545300000074
:106C20004E52465F4552524F525F434F4E4E5F4366
:106C30004F554E54000000004E52465F4552524F91
:106C4000525F54494D454F55540000004E52465F27
:106C50004552524F525F4255535900007761726E50
:106C6000696E670064656275670000001B5B313BFD
:106C700033306D001B5B306D000000001B5B313B4F
:106C800033316D001B5B313B33326D001B5B313B9D
:106C900033336D001B5B313B33346D001B5B313B89
:106CA00033356D001B5B313B33366D001B5B313B75
:106CB00033376D00696E666F000000004750494F22
:106CC00054450000505253005541525400000000FA
:106CD00055415254450000006170705F62757474D4
:106CE0006F6E00006170705F74696D657200000006
:106CF000686172646661756C740000007077725F21
:106D00006D676D7400000000736F72746C6973744A
:106D100000000000756172745F6C6F675F62616391
:106D20006B656E6400000000617070006E72665FDB
:106D3000736468006E72665F7364685F616E74008E
:106D4000F46D0100800B0020DC01000040250100F3
:106D5000806E01005C0D002084270000402B0100A4
:106D60001862010000000000146D0100F80C002002
:106D7000BC6C010000000000C46C010000000000B9
:106D8000C86C010000000000D06C01000000000091
:106D9000D86C010000000000E46C0100000000005D
:106DA000F06C010000000303FC6C01000000000017
:106DB000086D010000000000286D010000000303C1
:106DC0002C6D010000000303346D0100000003037B
:106DD0000C0D0020040D00200C0D0020E40E0020FE
:106DE00018000000B72B010000000000A14B0100BB
:106DF0000000000001185AFF010956200130091F48
:106E00005015100140110221041490660154A4652C
:106E100001141C67011A6804111914811AD00C148A
:106E2000C463011A58041AE81C142C68019A4C20F7
:106E3000294014C064011A1C449AE818811AB43419
:106E40001A742001111220BA400829D45904011CD7
:106E50001AE064145C6C011AB4041A64041A740411
:106E60001A6C041A7C041A84041A8C041A94041AE6
:106E70009C041AA4041AAC0449A90300D00300001E
:0400000500012201D3
:00000001FF
