:020000021000EC
:1020000000000120192201000122010065470100A2
:102010000522010007220100092201000000000042
:102020000000000000000000000000000B22010082
:102030000D220100000000000F220100112201000A
:102040008D3C0100132201004531010013220100E3
:102050001322010013220100F92F010013220100B5
:102060001322010013220100132201001322010098
:102070001322010013220100132201001322010088
:102080001322010051470100132201001322010015
:1020900013220100132201003D5C01001322010004
:1020A0001322010013220100132201001322010058
:1020B00013220100132201000000000000000000B4
:1020C0001322010013220100132201001322010038
:1020D000132201001322010013220100000000005E
:1020E00000000000000000000000000000000000F0
:1020F00000000000000000000000000000000000E0
:1021000000000000000000000000000000000000CF
:1021100000000000000000000000000000000000BF
:1021200000000000000000000000000000000000AF
:10213000000000000000000000000000000000009F
:10214000000000000000000000000000000000008F
:10215000000000000000000000000000000000007F
:10216000000000000000000000000000000000006F
:10217000000000000000000000000000000000005F
:10218000000000000000000000000000000000004F
:10219000000000000000000000000000000000003F
:1021A000000000000000000000000000000000002F
:1021B000000000000000000000000000000000001F
:1021C000000000000000000000000000000000000F
:1021D00000000000000000000000000000000000FF
:1021E00000000000000000000000000000000000EF
:1021F00000000000000000000000000000000000DF
:10220000FEE7FEE7FEE7FEE7FEE7FEE7FEE7FEE7A6
:10221000FEE7FEE700F002B8FFF7FCBF0F484FF003
:102220000701884385460E4880470E48016841F4FF
:1022300070010160BFF34F8FBFF36F8F00F01AB8CA
:1022400009480A490A4A884207D0521A05D0037839
:1022500001300B700131013AF9D1704700000120C3
:10226000C929010088ED00E0E0600100800B00203A
:10227000800B0020344935480A1A02D007229143C6
:102280008D46334933480A1A06D00722914381F319
:102290000988022282F314882F483049304A00F01E
:1022A00041F830483049314A00F03CF83048314973
:1022B000314A00F037F831483149324A00F032F8FB
:1022C00031483249324A00F02DF832483249334A17
:1022D00000F028F832483349334A00F023F83348F5
:1022E0003349002200F029F832483349002200F037
:1022F00024F832483249091A03F092FE314A9047D5
:102300001F482049884205D00268043003B4904732
:1023100003BCF7E700208646EC46002000212A4A4D
:102320009047FEE7884207D0521A05D00378013063
:102330000B700131013AF9D17047884202D0027026
:102340000130FAE7704700000000012000E00020A3
:10235000000001200000012058710100800B0020C6
:10236000400C0020CC230100CC230100346001008C
:1023700058710100800B0020800B0020E0600100FC
:10238000E0600100E0600100E0600100E060010049
:10239000E0600100E0600100E060010055710100B3
:1023A00018720100400C0020400C0020400C00205E
:1023B000701400207014002070140020701400208D
:0C23C000703400204122010011240100B3
:1023CC00C4DF704708B590F82C30D3B990F82D3095
:1023DC00802B16D143784E3B022B12D80A2000F0EA
:1023EC0069FA08B101F0E6FD4FF0A042D2F80435CD
:1023FC00D94301F0800103F08003C2F80815C2F83C
:10240C000C3508BD1FB54FF48041002003F052F885
:10241C0008B101F0CFFD02F093FF01F0ABFE08B163
:10242C0001F0C8FD0021012000F050FA08B101F0C4
:10243C00C1FD02F0DDFD08B101F0BCFD03F09EFB17
:10244C0008B101F0B7FD03F023FC08B101F0B2FDB7
:10245C00144A1068516801AB03C39068186001A856
:10246C0000F000FC08B101F0A5FD00210846FFF7C3
:10247C00A7FF08B101F09EFD4FF0A04303220A48CC
:10248C00C3F81C27094B0A49C01AD040000410435A
:10249C0003F0A8F903F060F80028FBD102F0CEFDA0
:1024AC00F8E700BF02610100646001003C600100BC
:1024BC00E0600100054A4FF0A043125CD3F80435EC
:1024CC0023FA02F0C04300F0010070470E610100D6
:1024DC00044B1A5C012393404FF0A042C2F80C3518
:1024EC00704700BF0E610100044B1A5C012393403E
:1024FC004FF0A042C2F80835704700BF0E610100D2
:10250C0008B50020FFF7F0FF0120FFF7EDFF0220D8
:10251C00FFF7EAFFBDE808400320FFF7E5BF08B569
:10252C000020FFF7D5FF0120FFF7D2FF0220FFF7B5
:10253C00CFFFBDE808400320FFF7CABF074A4FF0A2
:10254C00A041105CD1F804350122824022EA03003C
:10255C001340C1F80805C1F80C3570470E61010035
:10256C000D2809D00E2809D00F2809D010280CBF2F
:10257C0003204FF0FF307047002070470120704758
:10258C0002207047C20708B501460CD54FF0A04396
:10259C000322C3F84427C3F84827C3F84C27C3F8D1
:1025AC005027FFF7ADFF8B070AD54FF0A0430C2245
:1025BC00C3F83427C3F83827C3F83C27C3F840279F
:1025CC0008BD0220FFF7BABF2DE9F04780460D4643
:1025DC00FFF7C6FF0328044610D8012D10D0022D9A
:1025EC0030D05DB91A4801F037FE1A4B04EB4402A7
:1025FC0013449D78184B1B5DAB4219D0BDE8F08796
:10260C00144E00EB4003F218F55C5378470053B1BD
:10261C00DFF84C900E484A464FF4804101F0EEFD35
:10262C0008B989F8008027443E440B4BB2781A5500
:10263C00002DE3D0094B1B68002BDFD02846BDE8EA
:10264C00F0471847034B00EB400423445D78EFE759
:10265C00A00B0020420C00205D0C0020580C002028
:10266C00400C002000780221FFF7AEBF08B5094BE3
:10267C001B7853B10020FFF737FF0120FFF734FF21
:10268C00BDE808400320FFF72FBFBDE80840FFF767
:10269C0037BF00BF410C0020F8B57A4C23780546B3
:1026AC001BB100232370FFF7E1FF172D00F2878089
:1026BC00DFE805F00C1717425364757F878C878C05
:1026CC00949999999999C3C8D0D8E3E3FFF7CEFFB1
:1026DC006D4801F0C1FD6D4B002204461A70204676
:1026EC00F8BD0020FFF7E6FEF0B10020FFF7FCFE7E
:1026FC00022D0CBF4FF4E1644FF47A64634B1D70F0
:10270C0000254FF400464FF47A7029464FF4FA62D4
:10271C000023E4FB060103F0E5FA2A460146BDE876
:10272C00F840594801F06ABDFFF7D2FE022D0CBFEC
:10273C00C8244FF4C874E1E70020FFF7BBFE40B19A
:10274C000020FFF7D1FE4FF44874504B03221A704F
:10275C00D6E7FFF7BDFEC824F7E70020FFF7AAFE77
:10276C0038B10020FFF7C0FE4FF47A64474B0422C7
:10277C00EDE7FFF7ADFE4FF4C874F7E70020FFF765
:10278C0099FE48B10020FFF7AFFE404B05221A70AE
:10279C0040F6CD410022C2E7FFF79AFEF5E7002094
:1027AC00FFF7CCFE394B06221A70002240F266610C
:1027BC00B5E70020FFF78CFE344B07221A7000247B
:1027CC008DE701202070FFF7B9FEEEE701202070A5
:1027DC00FFF7B4FE00224FF40051A0E7FFF79FFE75
:1027EC002A4B0C22EAE72A482A4E01F035FDD5F196
:1027FC00110504461CD0D8B9012D13D0C8235D4354
:10280C0021464FF400474FF47A704FF4FA620023DC
:10281C00C5FB070103F066FA224601461C4801F08D
:10282C00EDFC04460220FFF753FE0123337056E7FC
:10283C000220FFF759FE0023F8E7FFF717FF134BB1
:10284C001222BBE7FFF712FF0020FFF741FE0F4BF0
:10285C001322B3E7FFF70AFF0120FFF739FE0B4BFA
:10286C001422ABE7FFF702FF0020FFF731FE012037
:10287C00FFF72EFE054B1522A0E7FFF750FE034B8A
:10288C001D709CE7540C0020C00B00205C0C002039
:10289C00800B0020410C0020044B1B68DB0703D588
:1028AC00034B1878FFF7F8BE704700BF500C0020A0
:1028BC005C0C0020044B1B6813F0010301D0FFF7E4
:1028CC00EBBE1846704700BF500C002038B51C4BAF
:1028DC0018601C4B10F00204054619601AD01A4BF4
:1028EC001A480E221A700F22DA7010229A711122D5
:1028FC005A72042140F2333201F0EEFA044648B920
:10290C0001F042FB044628B90146114A114801F076
:10291C0063FC0446EB0711D50120FFF733FE6CB9BD
:10292C0021460D4A0D4801F057FC044630B9BDE86C
:10293C0038400B4A0B48012101F04EBC204638BDF3
:10294C00500C0020580C0020420C00201461010097
:10295C007126010038610100A52801003C610100CD
:10296C00CF250100346101004FF08053D3F83001C2
:10297C00421C04BF4FF0704393F8E00F831F584282
:10298C00584170474FF0704393F8E02F062A09D155
:10299C00D3F8E83FC3F30313033B042B02D8024ADA
:1029AC00D05C7047002070474F610100024AD2F89A
:1029BC000034002BFBD0704700E0014010B5FFF74E
:1029CC00D3FF40B14FF08053944AD3F82433C3F370
:1029DC000423C2F84035FFF7D5FF10B1904B914A54
:1029EC005A67FFF7C1FF48B14FF080534FF0804258
:1029FC00D3F84432C3F34233C2F83C35FFF7C2FF7D
:102A0C0030B1894AD2F8FC3023F08073C2F8FC3024
:102A1C00FFF7AAFF40B14FF080430022C3F80C210E
:102A2C00C3F81021C3F83825FFF7ACFF20B14FF0E5
:102A3C0080430322C3F8A025FFF7A4FF60B17B4BB2
:102A4C000522C3F810260122C3F888260022C3F8F9
:102A5C0018263F22C3F814264FF08053D3F83021A8
:102A6C00511C09BF4FF07043D3F8343193F8E02F69
:102A7C00D3F8E83F08BFC3F30313062A4DD1033B39
:102A8C00042B03D86A4AD35C002B46D04FF08052FB
:102A9C00684BD2F80414C3F82015D2F80814C3F804
:102AAC002415D2F80C14C3F82815D2F81014C3F856
:102ABC002C15D2F81414C3F83015D2F81814C3F826
:102ACC003415D2F81C14C3F84015D2F82014C3F8EE
:102ADC004415D2F82414C3F84815D2F82814C3F8B6
:102AEC004C15D2F82C14C3F85015D2F83014C3F886
:102AFC005415D2F83414C3F86015D2F83814C3F84E
:102B0C006415D2F83C14C3F86815D2F84014C3F815
:102B1C006C15D2F84424C3F87025FFF725FF48B193
:102B2C004FF080534FF08042D3F8583203F04F03EC
:102B3C00C2F8E43EFFF718FF48B14FF08043D3F8DA
:102B4C000024D20744BF6FF00102C3F800244FF0F9
:102B5C008053D3F83021062A0ED1D3F83431033BFD
:102B6C00042B02D8344AD35C33B1344AD2F83C3704
:102B7C0043F48063C2F83C372B4AD2F8883043F4D4
:102B8C007003C2F88830BFF34F8FBFF36F8F4FF0D5
:102B9C008053D3F83021062A0FD1D3F83431033BBC
:102BAC00042B02D8264AD35C3BB14FF01023D3F848
:102BBC0008224FF08043C3F858254FF01023D3F868
:102BCC000022002A03DBD3F80432002B22DA1D4941
:102BDC0001234FF01020C1F804351524FFF7E6FE51
:102BEC00C0F80042FFF7E2FEC0F80442FFF7DEFE39
:102BFC000023C1F80435FFF7D9FEBFF34F8F0A4904
:102C0C00114BCA6802F4E0621343CB60BFF34F8FE1
:102C1C0000BFFDE70D4B0E4A1A6010BD003001409D
:102C2C0000C007400DF0ADBA00ED00E000500040D0
:102C3C004061010000C000404561010000100040EF
:102C4C004A61010000E001400400FA05E00B00209D
:102C5C000090D003C2DF7047CDDF7047D1DF7047E3
:102C6C00D3DF704710B504468378827A41780078B8
:102C7C00FFF7F0FFA8B923796279E1882078FFF794
:102C8C00EFFF70B9E1782078FFF7E6FF48B9A37839
:102C9C00DB0706D4218921B12078BDE81040FFF76D
:102CAC00DDBF10BD1FB503788DF80030436801936C
:102CBC0083688DF80830C368054A0393054B684652
:102CCC0053F8213052F82110984705B05DF804FBF9
:102CDC00640C0020680C00201FB503788DF80030C0
:102CEC004368019383688DF80830C368054A0393E1
:102CFC00054B684653F8213052F82110984705B01F
:102D0C005DF804FB640C0020680C0020F0B5194B36
:102D1C0090F800C091F81DE043F82C20164B164695
:102D2C000A6943F82C20154B03F80CE00C460746B7
:102D3C000FCC89B06D460FC594E80F0085E80F00E5
:102D4C00CDF810C0BEF1000F09D0002E0C4A694618
:102D5C0008BF3246381D00F01BFD09B0F0BD002E37
:102D6C00084A694608BF324607F10C0000F0F6FA33
:102D7C00F3E700BF680C0020640C00206C0C0020F2
:102D8C00B12C0100E52C010000F1804000F5C040A1
:102D9C00002382B0036003680193019B02B070476B
:102DAC00800000F1A040D0F8003723F44033C0F885
:102DBC000037D0F8003743EA0141C0F800177047DC
:102DCC00054B4FF0FF32072843F8202084BF1B1817
:102DDC0083F84820704700BF700C002010B51849CC
:102DEC0091F8583053BB4FF0FF3222FA03F0C00772
:102DFC0048BFC81803F1010348BF80F83020202BCE
:102E0C00F3D10024E0B20134FFF7DAFF0C2CF9D136
:102E1C000C4B0022C0204A6583F806034020186042
:102E2C004FF4BE70FFF7B0FF074B4FF00040C3F8F4
:102E3C000403012381F85830104610BD0820FCE72C
:102E4C00700C002000E100E000600040034B93F8A0
:102E5C005800003818BF0120704700BF700C0020CC
:102E6C00F0B5394E331893F93030002B69DA8D7880
:102E7C00C5F34005002D0BBF082300230C240824A8
:102E8C00A34201D10420F0BD56F82370013743D181
:102E9C0037185CB246F8232087F8304015B9F21881
:102EAC0082F848008A78550716D4D70736D58200A1
:102EBC0002F1A042D2F8005725F00205C2F80057E3
:102ECC00224FC50800F0070C012202FA0CF217F889
:102EDC0005C042EA0C027A558A780D7812F002028B
:102EEC0025D09B0003F1804303F5C0430002D3F8C7
:102EFC00102522F4473222F44072C3F810252D0419
:102F0C00D3F8102500F4F85005F44035284310434D
:102F1C00C3F810050020B6E70133B1E74D7800F592
:102F2C00E0724FF0A047AD0047F82250C8E7083CCC
:102F3C0046FA84F494F8503043EA851384F8503000
:102F4C00E8E708209FE700BF700C0020C40C0020AD
:102F5C0010B51F4C231893F93020072A18DD083AB6
:102F6C0044FA82F292F850309B09032B0BD14FF0AC
:102F7C00A043D3F81015C14001F001010231BDE8A6
:102F8C001040FFF70DBF012B0CBF02210321F6E708
:102F9C00D3B2072B1AD8930003F1804303F5C04337
:102FAC00D3F8100540F00100C3F8100502F1400001
:102FBC0040B2800080B2FFF7E7FE39B154F82230FE
:102FCC0023B101239340034AC2F8043310BD00BF60
:102FDC00700C0020006000404FF0A043D3F8103577
:102FEC0023FA00F000F00100704700002DE9F347D0
:102FFC0000244E4D01944FF48072012102F1804364
:10300C0003F5C04390B21B68012B06D1D5F80433ED
:10301C000B4202D0FFF7B8FE0C430432B2F5907F9E
:10302C004FEA4101EAD1414BD3F87C31012B0CD151
:10303C004FF4BE70FFF7A8FE4FF0A04344F00044DD
:10304C00D3F820250192C3F82025E3B2D3B1384F31
:10305C0000250126344210D0AB0003F1804303F568
:10306C00C043D3F81005D3F8101557F8253023B109
:10307C00C1F30141C0F3042098470135082D4FEAF4
:10308C004606E7D1002C48DA294C4FF0A047294DD1
:10309C004FF00008012615F9013F5A1C31D0C3F33B
:1030AC00C20108316944DAB211F8041C03F03F097B
:1030BC0003F0070306FA03F3194222D009F5E07373
:1030CC00484657F82330C3F3014ABAF1020F0CBF3C
:1030DC0003210221FFF764FE06FA09F3C7F8203535
:1030EC0004EB090393F9303054F823304BB19109B8
:1030FC00032904D0BAF1020F12D1012901D148469B
:10310C00984708F10108B8F1040FC4D1D7F820355D
:10311C000193C7F82035002BB9D102B0BDE8F08778
:10312C00BAF1030FEDD10229E8E700BF00600040BF
:10313C00700C0020BF0C0020014B1B68184700BF0F
:10314C00CC0C00200E4B984237B50C4602D0002018
:10315C0003B030BD00230DF107008DF8073001F0EE
:10316C0085F9084B1D7915B901221C601A719DF85F
:10317C00070001F09FF9002DE9D01120E8E700BF0E
:10318C0000200040CC0C0020034B984201BF034BA5
:10319C0000221A601A71704700200040CC0C0020ED
:1031AC000023435082B043580193019B02B07047F7
:1031BC000A4610B54FF48E71FFF7F2FF136A91684F
:1031CC00C95C136A01331362C0F81C1510BD8B69FE
:1031DC000A4610B54FF4847123B9FFF7E1FFD0F81C
:1031EC00183510BDFFF7DCFF536AD168D0F818050D
:1031FC00C854536A01335362F3E700001FB501232F
:10320C008DF80030044BCDE90110D3E9001268466B
:10321C00904705B05DF804FBD40C002030B54D4D43
:10322C00D5F804339A0585B051D5D5F82431002B47
:10323C004DD04FF492712846FFF7B2FF4FF4017353
:10324C00C5F80833444B93F829200AB901226A6067
:10325C00404902228DF80020D1F88024C1F8802446
:10326C0003929A690292DA6801920022C3E906225B
:10327C006846D3E9001290473648D0F81C315BB150
:10328C00354A5169136A99424DD992F82830002B6E
:10329C0049D11146FFF78CFF2E48D0F84431002B52
:1032AC0056D04FF4A271FFF77BFF2B4B93F82920DC
:1032BC000AB1012202609A69002A49D0586AD96879
:1032CC0000229A6105B0BDE83040FFF797BFD5F8F2
:1032DC0004335B07D0D5D5F80831002BCCD01E4C6D
:1032EC001C482146FFF773FF636AA2699A42C3D157
:1032FC00E369E1684BB1A3612369E3600023606A71
:10330C00E3616362FFF77AFFB6E794F829300BB9F3
:10331C0001236B600F4B4FF40172C3F80823002399
:10332C00606AA361EEE70B484FF48E71FFF738FF2C
:10333C005369002BB0D051690291002391688DF82C
:10334C000030019153616846D2E900139847A3E716
:10335C0005B030BD00200040D40C00202DE9F8430E
:10336C00534D90F804802C2303FB0853064693F826
:10337C002A300C469146002B40F095804D49006850
:10338C00FFF7E0FE0746002840F08F802168336885
:10339C00481C0BD04FF0A04001228A40C0F80825F1
:1033AC0001F5E0724FF0030C40F822C06068421C3B
:1033BC001FBF00F5E0724FF0A04C4FF0000E4CF820
:1033CC0022E0A269C3F8242594F814C0627DBCF1F4
:1033DC00010F4CEA0202C3F86C25C3F81405C3F8BC
:1033EC000C151DD1A1684A1C1FBF01F5E0724FF0EE
:1033FC00A0404FF0000C40F822C0E268501C0BD0EB
:10340C004FF0A04C01209040CCF8080502F5E0707C
:10341C004FF0030E4CF820E0C3F80825C3F8101544
:10342C002C2303FB08F3EA18C2F804902269EA5033
:10343C00B9F1000F1FD03068227F4FF48E71FFF767
:10344C00AFFE4FF4A271FFF7ABFE1B4BC0F8043379
:10345C0040F3073153010029C0F30730DBB21DDB09
:10346C00164A541884F800330123490900F01F0050
:10347C00834042F8213033680422C3F800252C2302
:10348C0003FB08530022C3E9062283F829205A6162
:10349C00012283F82A203846BDE8F883084A00F058
:1034AC000F001354E7E70827F5E71127F3E700BFF0
:1034BC00D40C0020293201008000020000E100E061
:1034CC0014ED00E0F8B503680579304C0022C3F820
:1034DC0000252C2202FB05425268A2B12C4AC3F8EB
:1034EC000823190B43F30733002B0CDB01F01F01EE
:1034FC005B0901228A402033264941F82320BFF37F
:10350C004F8FBFF36F8F0068D0F80C65D0F814158F
:10351C00D0F80835D0F810254FF0FF37BE42C0F870
:10352C00147518BF06F5E076C0F80C75C0F8087570
:10353C00C0F810751EBF4FF0A0474FF0020C47F8B3
:10354C0026C04E1C1FBF4FF0A04601F5E0710227AC
:10355C0046F82170511C1FBF4FF0A04102F5E072DC
:10356C00022641F822605A1C1FBF03F5E0734FF08E
:10357C00A042022142F82310FFF706FE2C2303FB86
:10358C000544002384F82A306360F8BDD40C002075
:10359C008402020000E100E00279044B2C2101FBC3
:1035AC0002335869003818BF01207047D40C002032
:1035BC002DE9F84F074690F8048089469346FFF7AB
:1035CC00EBFF0446002839D11E4E2C2508FB056A5A
:1035DC004FF48E71CAF814B0CAF80890CAF82000DB
:1035EC008AF828003868FFF7DBFD01238360514619
:1035FC00FFF7DEFDDAF8043055460BBBDAF8144061
:10360C002B6A9C4210D8D0F81C31002BFBD0012324
:10361C00C36000202C2303FB086600237361BDE804
:10362C00F88F95F828303BB9D0F81C31002BF8D026
:10363C005146FFF7BDFDE3E70F20EBE71120EEE766
:10364C002046ECE7D40C00200023435082B04358B2
:10365C000193019B02B070471FB501238DF8003018
:10366C00044BCDE90110D3E900126846904705B030
:10367C005DF804FB000D00207FB5434AD2F82461AD
:10368C00002E60D010464FF49271FFF7DDFF02233D
:10369C008DF80030D2F88034C2F880340393D2F81D
:1036AC003C350293394BDA6801920022C3E90622B9
:1036BC006846D3E9001290473348D0F8443173B1CF
:1036CC004FF4A271FFF7C0FF304B9A693AB1002258
:1036DC00C3E90622D968D0F83C05FFF7BDFF2A489C
:1036EC00D0F82031ABB14FF49071FFF7ADFF01234F
:1036FC00C360264B5A6962B1D0F84C150291002276
:10370C0099688DF8002001915A616846D3E900123E
:10371C0090471D48D0F858319BB14FF4AC71FFF76E
:10372C0093FF1A4B5A6962B1D0F84C1502910022E2
:10373C0099688DF8002001915A616846D3E900120E
:10374C00904704B070BDD2F81031002BB4D04FF4B8
:10375C0088711046FFF778FF0C4BD2F83C0599693D
:10376C008842A9D1DC69D96864B1D2F8005225F03D
:10377C002005C2F800521A699C61DA60DE61FFF71D
:10378C006BFF99E79C61FAE700200040000D0020D8
:10379C002DE9F843584D90F80480242303FB08537B
:1037AC00064693F820300C469146002B40F09F8043
:1037BC0052490068FFF7C6FC0746002840F0998084
:1037CC0021683368481C0BD04FF0A04001228A407E
:1037DC00C0F8082501F5E0724FF0030C40F822C048
:1037EC006068421C1FBF00F5E0724FF0A04C4FF018
:1037FC00000E4CF822E0A269C3F8242594F814C0FA
:10380C00627DBCF1010F4CEA0202C3F86C25C3F8CF
:10381C000C15C3F814051DD1A1684A1C1FBF01F576
:10382C00E0724FF0A0404FF0000C40F822C0E2686C
:10383C00501C0BD04FF0A04C01209040CCF8080548
:10384C0002F5E0704FF0030E4CF820E0C3F80825A9
:10385C00C3F81015242303FB08F3EA18C2F80490EC
:10386C002269EA50B9F1000F2BD03068227F4FF457
:10387C008871FFF7E9FE4FF49071FFF7E5FE4FF406
:10388C009271FFF7E1FE4FF4A271FFF7DDFE4FF4EA
:10389C00AC71FFF7D9FE1A4BC0F8043340F3073173
:1038AC0053010029C0F30730DBB21BDB154A541857
:1038BC0084F800330123490900F01F00834042F8CB
:1038CC00213033680822C3F80025242303FB085554
:1038DC000023C5E906336B61012385F82030384697
:1038EC00BDE8F883084A00F00F001354E9E70827F5
:1038FC00F5E71127F3E700BF000D00208536010026
:10390C001003420000E100E014ED00E0F8B5444C77
:10391C000579242303FB054302465B680068ABB1C1
:10392C00404BC0F8083340F30733002B4FEA1036F6
:10393C000CDB06F01F065B090121B14020333A4E27
:10394C0046F82310BFF34F8FBFF36F8FD0F80032C0
:10395C0023F02003C0F80032242303FB05439B69AA
:10396C002BB14FF4A271FFF76FFE012343604FF4AC
:10397C00AC71FFF769FE0123C360242303FB0543ED
:10398C00D0F858110029FBD0996919B1D0F844111D
:10399C000029F5D00023C0F800351368D3F80C7556
:1039AC00D3F81465D3F80825D3F810154FF0FF3C65
:1039BC006745C3F80CC518BF07F5E077C3F814C505
:1039CC00C3F808C5C3F810C51EBF4FF0A0434FF095
:1039DC00020C43F827C0771C1FBF4FF0A04306F51D
:1039EC00E076022743F826704E1C1FBF01F5E071EC
:1039FC004FF0A043022643F82160531C1FBF4FF029
:103A0C00A04302F5E072022143F82210FFF7BCFB41
:103A1C00242303FB0544002384F820306360F8BDA5
:103A2C00000D00201003420000E100E00279044B7D
:103A3C00242101FB02335869003818BF012070475C
:103A4C00000D002001F06043B3F1005F2DE9F04759
:103A5C000746884692463AD190F80490FFF7E6FF65
:103A6C000446002835D11D4E3A68242505FB09650E
:103A7C004FF490711046C5F814A0C5F80880FFF7F4
:103A8C00E3FD4FF4AC71FFF7DFFD6B69A968C2F879
:103A9C004415C2F84835012393606B68DBB9D2F842
:103AAC002031D2F858011BB90028F8D00F2007E0BC
:103ABC000028FBD10123D360D2F85831002BFBD066
:103ACC00242303FB096600237361BDE8F0871020F3
:103ADC00FBE71120F9E72046F7E700BF000D0020B7
:103AEC0038B5074C051E04F1080318BF1C462368A3
:103AFC002BB11A6822605B6828469847F7E738BDF7
:103B0C002C0D002020B9054B01225A70FFF7E8BF9D
:103B1C00012802D1014A9070F8E77047240D00206B
:103B2C0038B50E4C2378B3B90D486360A36023619C
:103B3C00E36000F075F8054602F060F808B900F093
:103B4C007BF801232370074BD3F800340BB101230E
:103B5C00A370284638BD8525F5E700BF240D00204D
:103B6C00113B01000000014037B50D4C00230DF155
:103B7C0007008DF8073000F079FCE368013BE36047
:103B8C00E36833B9074BD3F8005415B900F066F865
:103B9C00A5709DF8070000F08DFC03B030BD00BF90
:103BAC00240D002000000140012813B50CD003287F
:103BBC0020D038B9134B0122C3F88020BFF34F8FAC
:103BCC00BFF36F8F02B010BD0F4C00230DF1070037
:103BDC008DF8073000F04AFC23780BB9FFF7A0FFF3
:103BEC00E3689DF807000133E3600123A37000F044
:103BFC0061FCE7E700F020F802B0BDE81040FFF7E9
:103C0C00B3BF00BF00E100E0240D002000F18040B4
:103C1C00002382B0036003680193019B02B07047DC
:103C2C00044A137923B9012110609180184670471A
:103C3C0085207047380D0020074B1A68D20704D432
:103C4C00C02283F8002301221A604FF08043012226
:103C5C00C3F81825704700BF00E100E04FF0804228
:103C6C0008B50223C2F808334FF48270FFF7CEFF79
:103C7C000123D360D2F81834DB03FBD408BD000059
:103C8C004FF0804110B5D1F8003163B14FF4807022
:103C9C00FFF7BCFF0D4B58790122C1F8082310B96E
:103CAC005A711B6898474FF08042D2F8043163B1C7
:103CBC004FF48270FFF7AAFF0223C2F80833034BBC
:103CCC00BDE810401B680120184710BD380D0020BE
:103CDC00C30710B507D4F023054A4008145C2340F1
:103CEC001943115410BD0901C9B20F23F4E700BFE9
:103CFC00500D002030B5094B1C78094B1968002376
:103D0C009C4202DC0022104630BD11F83350854233
:103D1C0001EBC302F7D00133F2E700BF400D0020E6
:103D2C00600D002013B504460191FFF7E3FF38B195
:103D3C0043682BB10199204602B0BDE810401847EA
:103D4C0002B010BD034B044819680022490800F06A
:103D5C0055BA00BF440D0020E80B002010B5C0B2CE
:103D6C00FFF7C8FF04460078FFF736F963785A1E50
:103D7C0053425341834208D1044AD2E900321343DF
:103D8C0003D1BDE81040FFF7DDBF10BD480D00208A
:103D9C0037B54308374AD35CC2074CBF1B0903F045
:103DAC000F0304460D46042B25D8DFE803F0032649
:103DBC00303D4100F9B10121FFF78AFF00230DF1DD
:103DCC0007008DF8073000F051FB0122A4F120030D
:103DDC00C4F12000284922FA00F002FA03F303434D
:103DEC00A240D1E9004014431843C1E900409DF8BA
:103DFC00070000F05FFB03B030BD003918BF012194
:103E0C004900204603B0BDE83040FFF761BF49B11F
:103E1C000321FFF75DFF0121204603B0BDE83040D0
:103E2C00FFF780BF0121ECE70029E4D10421E8E78A
:103E3C0009B10321E5E7FFF74BFF29462046FFF7C1
:103E4C0071FF0DF107008DF8075000F00FFB0122F8
:103E5C00A4F12003C4F12000074922FA00F002FA71
:103E6C0003F30343A240D1E9004024EA020420EA10
:103E7C000300BAE7500D0020480D00202DE9F04159
:103E8C00124E134F00243378A34208DC114AD2E9B6
:103E9C000032134318D0BDE8F041FFF753BF3D6823
:103EAC0005EBC40815F83400FFF796F898F80130C4
:103EBC005A1E53425341181A4142414115F83400DD
:103ECC00FFF766FF0134DEE7BDE8F081400D00200E
:103EDC00600D0020480D0020092AF7B505460C4658
:103EEC0016463ED9FEF7B2FFE8B11F4B1F481D60C6
:103EFC001F4B204F1C70204B002110221E6002F023
:103F0C0059F81E4B00200021C3E90001013CE4B22A
:103F1C000326FF2C0DD11A4A1A48002103B0BDE824
:103F2C00F04000F059B9FEF759FF0028DDD003B07E
:103F3C00F0BD9DF8063015F834008DF8046005EBE3
:103F4C00C40223F007038DF8063001A993788DF88D
:103F5C0005303A46FEF784FF013CE4B20028D8D085
:103F6C00E5E70720E3E700BF600D0020500D0020BF
:103F7C00400D0020693D0100440D0020480D00203B
:103F8C00893E01008461010070B5084D084E002483
:103F9C002B789C4201D3002070BD3368012113F8AB
:103FAC003400FEF7D5FF0134F2E700BF400D0020CE
:103FBC00600D00201FB50021039001AA44F20100FE
:103FCC00CDE9011100F004F805B05DF804FB000028
:103FDC0038B572B601F050FC01F0BEFA0028FBD1E6
:103FEC00104B114C114D1249E41AE408240444F00E
:103FFC00010001F0F7FBD5F8F030DB0700D500BE6F
:10400C000C4944F0020001F0EDFBBFF34F8FEA685E
:10401C00094B02F4E0621343EB60BFF34F8F00BF18
:10402C00FDE700BF3C6001006460010000ED00E0B2
:10403C0088610100946101000400FA0510B5D0E913
:10404C000242D1E90203A04293412CBF012000207F
:10405C0010BD000008B50A4800F05DFB094AD2E922
:10406C000031C018084BD3E9002341F10001904204
:10407C0071EB030303D210F1807041F1000108BD14
:10408C00080C0020680D0020E00D002037B5054617
:10409C000C460A4801A900F01AFC60B10570446096
:1040AC0001A9064800F03DFC18B1054800F038FBAA
:1040BC00002003B030BD0420FBE700BFCC0D002076
:1040CC00080C0020294B73B51E7804461EB9002637
:1040DC00304602B070BD0028F9D0FFF7BBFFD4E921
:1040EC0002239042994139D300230DF107008DF83A
:1040FC00073000F0BBF923692BB94FF0FF324FF0BA
:10410C00FF33C4E902239DF8070000F0D3F9D4E98A
:10411C000530984700250DF107008DF8075000F089
:10412C00A5F92369C3B1D4E90212B2F1FF3F08BF6C
:10413C00B1F1FF3F05D05B1842F10002C4E9023235
:10414C0035469DF8070000F0B5F9002DBFD00848A2
:10415C00214600F0CAFFBBE71D46F2E7B3F1FF3F73
:10416C0008BFB2F1FF3FB2D0F1E700BF700D0020E5
:10417C00B061010013B5114B114918680190082367
:10418C001048582200F090FB044698B90E4A0F488C
:10419C0001A900F0B3F9044660B90C48012100F004
:1041AC009DFA01230A4A0948194600F0FFF9094B08
:1041BC0001221A70204602B010BD00BFAC61010094
:1041CC00740D0020CC0D0020C1420100080C002011
:1041DC00FFFF7F00700D002030B56AB103684FF00F
:1041EC00FF344FF0FF355A614A1E5142C3E9024574
:1041FC0051411961002030BD0720FCE7F7B504469A
:10420C0000250DF1070017460E468DF8075000F0FB
:10421C002DF9D4E90223B3F1FF3F08BFB2F1FF3F00
:10422C0007D1FFF717FF301841F10001C4E9020173
:10423C0001259DF8070000F03DF955B12369A761F0
:10424C0003B126612146002003B0BDE8F040FFF722
:10425C001DBF284603B0F0BD37B5054600240DF14F
:10426C0007008DF8074000F001F9D5E90223B3F1FE
:10427C00FF3F08BFB2F1FF3F1FBF4FF0FF324FF0BF
:10428C00FF33C5E9022301249DF8070000F012F961
:10429C0034B12946012003B0BDE83040FFF7F6BE2B
:1042AC00204603B030BD0000014800F034BA00BF16
:1042BC00080C00202DE9F743064600F017FA40B130
:1042CC00624AD2E9003113F1807341F10001C2E975
:1042DC0000310021304600F018FA38B15C4C2368EC
:1042EC0023B12068FFF7EEFE002323600121304646
:1042FC0000F00BFA20B1FFF7ADFE564BC3E90001FD
:10430C005548534C01A900F01CFB4FF0FF384FF0FF
:10431C00FF39A0B9DFF844814D4D404600F0FBFE5B
:10432C00002800F08580D0E90223B3F1FF3F08BFDD
:10433C00B2F1FF3F32D1404600F0E7FEEDE70378E3
:10434C00012B20D0022B08D1444D284600F0DDFE75
:10435C00002877D0C0E90289F7E75BB94168D1E959
:10436C000223B3F1FF3F08BFB2F1FF3F02D03B483D
:10437C0000F0BBFE01A9384800F00EFB01A936483D
:10438C0000F0DFFAC5E741682368994202D10023A7
:10439C002360EFE7314800F0C1FEEBE7296891B1EB
:1043AC002968D1E9020182428B412FD22B68D3E9D3
:1043BC000223B3F1FF3F08BFB2F1FF3F03D02968DE
:1043CC00404600F092FE404600F09FFED0E90249C4
:1043DC000746FFF73FFE201A69EB0101012871F136
:1043EC00000918DBB0F5350F13D3FFF75DFF1C4A3E
:1043FC0002441C484FF49603002100F0F7F890B9E2
:10440C002B6813B9304600F0C9F82F6003B0BDE833
:10441C00F0832246EDE71348002100F06CF9384692
:10442C00FFF750FE01E00D28F9D000232B6074E754
:10443C00074B1B68002BE9D1304603B0BDE8F043B5
:10444C0000F0B0B8084B01221A7093E7680D0020F9
:10445C00E80D0020E00D0020CC0D0020B061010023
:10446C00FFFFB400080C0020700D002070B5EFF3B6
:10447C00108672B60C4A9468012384B993600B4B76
:10448C000B4DD3F8801029401160C3F88050D3F83D
:10449C00841051604FF0FF32C3F884202346037020
:1044AC0006B962B670BD00BFEC0D002000E100E063
:1044BC00FC06FFBD084B9A6810B55AB150B9EFF322
:1044CC00108172B6054A1C6814605C685460986070
:1044DC0001B962B610BD00BFEC0D002000E100E098
:1044EC00435882B03BB10023435043580193019B86
:1044FC00012002B070471846FBE70000F8B51F4BCF
:10450C0044791F4E43F824201E4A1F4B06EBC4046B
:10451C009B1A2279DB081B0432B143F002001B49C1
:10452C0001F060F90820F8BD02680C88C2F8084553
:10453C0090F904508A7804795201002DD2B218DB1C
:10454C0013494F1987F8002301226D0904F01F0449
:10455C00A24041F82520427906EBC201012446F81D
:10456C0032000C7143F003000A4901F03BF90020C2
:10457C00D9E7094904F00F040A55ECE7000E0020B6
:10458C00F80D00203C60010074600100BC6101006A
:10459C0000E100E0DE61010014ED00E0036801229F
:1045AC001A607047036801225A60704773B501F1B5
:1045BC005005AD000068ADB24FF480348C4000263D
:1045CC00C0F80843C0F84843465101F5A871455955
:1045DC00019522F07F42019D40F82120C0F8444310
:1045EC000BB1C0F8044302B070BD00002DE9F74FC9
:1045FC000D4622F07F4402684FF4803705F15006D7
:10460C008F408046B60002EB8500C2F84873B6B204
:10461C00C2F80873D2F8041599464FF0000BD0F885
:10462C004035C0F8401542F806B05B1A925900921A
:10463C0023F07F43012B009A4FEA850A0CD1264BBD
:10464C004FF4806043F001039847D8F8003043F8EA
:10465C0006B09B590193019BD8F80020D2F8046551
:10466C00C2F84473A31B23F07F43012B1CD11A4BBC
:10467C0005F5A875013443F0010342F825404FF4C9
:10468C0080609847D8F80030D3F804359E4209D1A1
:10469C00D8F800300020C3F84473C3F8047303B097
:1046AC00BDE8F08F0D20FAE79244C9F1FF13CAF868
:1046BC004045D2F80405211A013921F07F4103F558
:1046CC007F438B42EED30029E2D10134CAF8404536
:1046DC00D2F804359842DAE7F0610100036802224F
:1046EC00C3F8442309B1C3F80423704700684FF49E
:1046FC008271FFF7F5BE4FF4803303FA01F10368C2
:10470C00C3F84813C3F80813704750318900006888
:10471C0089B2FFF7E5BE0368D3F8040570470000C3
:10472C0090F90430002B09DB5A09012103F01F0317
:10473C00994002F14003024A42F82310704700BF2F
:10474C0000E100E0024B034A1B681068184700BFE9
:10475C00000E0020F80D00201EF0040F1CBFEFF31C
:10476C0009800AE0EFF308800549064A884201D81F
:10477C00904202D88D464FF00000034B18470000C2
:10478C000000012000E00020BD470100BFF34F8F67
:10479C000549064BCA6802F4E0621343CB60BFF3D1
:1047AC004F8F00BFFDE700BF00ED00E00400FA05ED
:1047BC002DE9F347054601F05FF800F0CDFE002827
:1047CC00FBD12D4B2D4C9F6A2D4BE41AE40824048D
:1047DC0044F00104002D49D0AA692A49204601F071
:1047EC0005F8EB680193AB68274900932046D5E99F
:1047FC00002301F010F8EB6900932449D5E9042358
:10480C00204600F0FCFF1C4BDB6A990703D52049BE
:10481C00204600F0E7FFDFF88890DFF888A000263C
:10482C004FF0010808FA06F33B4206D059F826204F
:10483C001AB15146204600F0D9FF01361A2EF1D19B
:10484C003A0605D50C4B13495A6B204600F0CEFFA7
:10485C003B0405D5084B10499A6B204600F0C6FF67
:10486C002846FFF793FF02B0BDE8F0870B492046BE
:10487C0000F0B8FFC7E700BF00ED00E08460010066
:10488C003C600100F66101000B6201004062010016
:10489C009B620100EA6201000A6301006862010088
:1048AC00E4670100DF62010010B561B1B2FBF3F403
:1048BC0003FB1424A4B244B9C0E9001484608281BF
:1048CC00C381204610BD0E20FCE70920FAE737B55E
:1048DC0050E8013F9DB2C48925448489A54228BF74
:1048EC002D1B0489A54202BFBFF32F8F002207E0C6
:1048FC00C5EA030540E80154002CE9D14FF0010250
:10490C008DF803200193019A0A609DF8031001F0C1
:10491C00FF0321B1006810FA82F003B030BD1846D5
:10492C00FBE70A884B889A4209D150E8012FC2EA6A
:10493C00024240E80123002BF7D1012070470020F0
:10494C00704737B550E8023F1FFAA3F5C488A5425B
:10495C0002BFBFF32F8F00220DE0C4892544848948
:10496C00A54228BF2D1BC3EA054540E80254002C84
:10497C00E8D14FF001028DF803200193019A0A60EF
:10498C009DF8031001F0FF0321B1006800EB124009
:10499C0003B030BD1846FBE70A884B889A4209D110
:1049AC0050E8022FC2EA224240E80223002BF7D142
:1049BC00012070470020704710B5034653E8000FE4
:1049CC000A4643E8002494F0000FF7D110BD10B54F
:1049DC00034653E8002F42EA010043E8000494F038
:1049EC00000FF6D110BD10B5034653E8000F00EAD6
:1049FC00010243E8002494F0000FF6D110BD10B56D
:104A0C00034653E8002F02EB010043E8000494F046
:104A1C00000FF6D110BD10B5034653E8002FA2EBE2
:104A2C00010043E8000494F0000FF6D110BD012101
:104A3C00FFF7CDBF0021FFF7D6BF10B590B1D0E97D
:104A4C00012301689B1ADBB20A60013BDBB2FF2B2E
:104A5C00026802D10020107110BD11684C1C14604A
:104A6C000B70F2E70E20F7E737B5054600240DF181
:104A7C0007008DF80740FFF7F9FC2A68696813688E
:104A8C008B420ED9591E116013F8013C288AEC6830
:104A9C0000FB0344AB685B1A1179DBB2994238BF57
:104AAC0013719DF80700FFF705FD204603B030BDDC
:104ABC0037B5054600230DF107000C468DF807307D
:104ACC00FFF7D4FC2A681368591C1160EA68A41A11
:104ADC002A8AB4FBF2F41C709DF80700FFF7EAFC7D
:104AEC0003B030BD826810B504462AB14369016831
:104AFC00006998470023A36010BD0EB403B5039959
:104B0C0021B104AB01AA019300F076F802B05DF874
:104B1C0004EB03B070470A2938B504460D4602D1A0
:104B2C000D21FFF7F8FFA3682268591CA160D5542A
:104B3C00D4E901329A4204D32046BDE83840FFF74D
:104B4C00D1BF38BD2DE9F84F9846DDE90A4315462B
:104B5C0082460F460A464FF00109AA420FD2C145C0
:104B6C0038BFC14613F0010B01D16CB900240126EA
:104B7C00B8F1010F1BD908F1FF386E43F8E709F1C2
:104B8C000109B2FBF5F2E8E79B070ED5B8F1000F6F
:104B9C000CBF30262026A145E9D2013C31465046B7
:104BAC00FFF7B9FF002CF6D1E0E72026F3E7B7FBBF
:104BBC00F6F39D42E1D9DFF83C80B7FBF6F35046A3
:104BCC0018F8031006FB1377FFF7A5FF3346AB422B
:104BDC00B6FBF5F6F1D2BBF1000F02D00CB1A1453A
:104BEC0001D3BDE8F88F20215046013CFFF793FF1D
:104BFC00F4E700BF4C6801002DE9F74F0546174656
:104C0C008846002900F03E8118F8011B49B92B7B1E
:104C1C00002B00F03781284603B0BDE8F04FFFF7BA
:104C2C0061BF252940F0B780002698F800302D2B65
:104C3C00424608F1010823D0302B24D02B2B25D051
:104C4C0000242A2B02F1010123D13B681A1D1B6899
:104C5C003A601C440A4613782E2B26D101324FF0B1
:104C6C00000A104610F8011BA1F1300CBCF1090F21
:104C7C001DD80A2303FB0A11A1F1300A0246F0E702
:104C8C0046F00106D1E746F00206CEE746F00406F0
:104C9C00CBE711F8013CA3F130000928DBD80A223C
:104CAC0002FB0434303C0A46CBE74FF0000A12F802
:104CBC00011B01F0FB0068289046F8D0782909D830
:104CCC006F290CD8632962D022D8252963D05829A2
:104CDC0000F0888098F80030002B95D197E7703958
:104CEC000829F7D801A252F821F000BF6B4E010041
:104CFC00E14C0100E14C0100014E0100E14C0100CE
:104D0C00DF4D0100E14C0100E14C0100F14D0100CF
:104D1C00642901D06929DDD13A68D2F80090111DBF
:104D2C0089EAE9723960A2EBE9724FF0010B092AAA
:104D3C0035DCD34538BFD3462CB1B9F1000F01DBBC
:104D4C00720700D5013CB30702D5BAF1000F03D0AE
:104D5C00F00701D44CBB0024B9F1000F2DDAC9F1D6
:104D6C0000092D212846FFF7D6FE06F00302022A81
:104D7C0004D1BAF1000F01D11CBB0024CDE90046CF
:104D8C0053460A2249462846FFF7DCFEA2E73B6859
:104D9C001A1D19783A602846FFF7BDFE9AE70A23D8
:104DAC000BF1010BB2FBF3F2C1E7A345D4D22021E6
:104DBC002846013CFFF7AFFECCE77107D5D52B2178
:104DCC00D0E7A345DAD230212846013CFFF7A3FEF9
:104DDC00D2E73968CDE900460A1D3A6053460A22EB
:104DEC000968D0E739680A1D3A60CDE90046534698
:104DFC001022F5E73B681A1D3A6016F00106D3F84D
:104E0C00009024D1B9F1000F03D0484601F06CF8A2
:104E1C000646B4421DD809F1FF3919F8011F0029C3
:104E2C003FF458AF2846FFF776FEF6E728460136E2
:104E3C00FFF771FE19F806100029F7D1A642BFF44E
:104E4C0049AF20212846013CFFF765FEF6E7002616
:104E5C00F0E720212846013CFFF75DFED9E73B68CF
:104E6C001A1D3A60302128461C68FFF754FE782141
:104E7C002846FFF750FE00220823CDE900322146D8
:104E8C00102280E703B0BDE8F08F00BF2DE9F84F8A
:104E9C00B0F806A04579D2F800B09DF828900AFB2E
:104EAC0005F5043D88460BEB0301A94203F104040C
:104EBC0088BFA5EB030BB4FBFAF607460AFB1644B6
:104ECC00C2F800B04EB9AAEB04055D4528BF5D469B
:104EDC00BBF1000F04D1BDE8F88F3F68013EF1E74C
:104EEC00043408EB06003C442A46B9F1000F0DD0FF
:104EFC002146ABEB050B01F027F8DA452E443F6851
:104F0C0055464FF0000428BF5D46E1E701462046B8
:104F1C00EFE7FFF792BDF8B546790146721E0546DC
:104F2C00002393422D6803D30024A64202D8F8BD77
:104F3C000133F6E70F682846FFF7BAFD013439460E
:104F4C00F3E72DE9F843068ACD1C0746FFF78CFDE5
:104F5C00043E35440446B5FBF6F5F0B14FF48073CE
:104F6C00EDB28380C680013D076081464FF000089A
:104F7C00A84512D23846FFF777FD064648B163794B
:104F8C000133637108F10108C9F80000076081461C
:104F9C00EEE72046FFF7BFFF34462046BDE8F88316
:104FAC0001210430FFF72BBD10B50121044604305C
:104FBC00FFF731FDC0B220B92046BDE81040FFF725
:104FCC00AABF10BD1FB503920022009203AAFFF7DF
:104FDC005DFF05B05DF804FB1FB503920122009242
:104FEC0003AAFFF753FF05B05DF804FB41DF7047E0
:104FFC000D4B10B500241C700C4B1C60BFF35F8F65
:10500C000B490C4800F05DF80B4A136943F0100390
:10501C0013614FF0A0434FF08072C3F80C250322AC
:10502C00C3F86027204610BD0C0E0020100E002087
:10503C0068680100040E002000ED00E013B50024A8
:10504C000DF107008DF80740FFF710FAF1EE103A5A
:10505C0023F09F03E1EE103ABFF35F8F134B402216
:10506C00C3F884219DF80700FFF724FA8DF8074058
:10507C000DF107004FF0A044FFF7F8F94FF08073E3
:10508C00C4F8083500F0BAFD58B1FFF7AFFF4FF088
:10509C008073C4F80C359DF80700FFF70BFA02B0CB
:1050AC0010BD20BF40BF20BFF1E700BF00E100E012
:1050BC00836800225A60C3E904229A60DA601A609D
:1050CC007047D1E90032934208BF0023016043606E
:1050DC007047436843B10268916852680B4493422D
:1050EC00436004BF00234360704770B544680646B4
:1050FC000D46206818B1B3682946984718B923683B
:10510C002B60256070BD2468F3E74368186808B10C
:10511C0002681A60704743681868704743681868DB
:10512C0000B97047884203D102681A6001207047A9
:10513C0003460068F4E7000010B50D49A1F5947220
:10514C00914201D800200FE08C1AE30F03EBE4032B
:10515C005B1002EBC30452F83330834205D802D201
:10516C0004F10802ECE7606810BD2146E8E700BFD7
:10517C00746D010008B5FFF7DFFF024B002808BF74
:10518C00184608BD376C0100F0B595B01D461646A3
:10519C0008460C46FFF704FF1A9B0D93CDE90865F2
:1051AC0000252B46082205A920460A958DF82C507F
:1051BC000C95FFF711FF079B0293069B03939DF839
:1051CC0014308DF8115003F00302012A1DD1BDF8E3
:1051DC001420059DC3F3C203C2F383168DF810305F
:1051EC00B20008230EA92046FFF7F6FEC5F395255D
:1051FC0008AB0093324602AB0EA9284600F0B0FB78
:10520C002046FFF7D1FE15B0F0BD022AF8D1BDF84B
:10521C001650C3F3C203C5F389158DF81030082757
:10522C00082D2E4628BF08263B4632460EA920469E
:10523C00FFF7D2FEAD1B08AB02AA31460EA83744CD
:10524C0000F0F2FB002DEBD1DAE70000014B01225C
:10525C001A707047550E00207047000070B50E4D47
:10526C0006460FCD88B06C460FC495E80F00002E93
:10527C0084E80F00094A0A484FF0060308BF0022D1
:10528C0069460093FDF742FD08B1FEF793FE054B0E
:10529C001E7008B070BD00BF746D01005952010042
:1052AC00100C0020140E002007B5044B0093044A88
:1052BC004023FFF769FF03B05DF804FBD1520100F6
:1052CC00150E002038B50D480D4C0E4D00232370E3
:1052DC000378EB5CD2B263B10430FEF7B3FB08B1D8
:1052EC00FEF768FE084B1A7812B12378002BFBD01E
:1052FC0038BD0C30FEF75CF9F1E700BF100C002054
:10530C00550E00206C0C0020140E002008B5084827
:10531C00084A0378D35C3BB10430FEF7F7FABDE8DA
:10532C0008400020FFF79ABF0C30FEF7CBF8F6E7E9
:10533C00100C00206C0C00200120FFF78FBF000028
:10534C0008B5FFF7F9FF0448042100F073FA034B8A
:10535C0001225A7108BD00BFBC600100240C002062
:10536C00027812F0040316D002F00303012B03D0D1
:10537C00022B09D0012070470A6800880232C0F362
:10538C00831002440A60F5E70B684288023303EB92
:10539C0092130B60EEE71846704700002DE9F04FB2
:1053AC00434C87B0884600230546871C0DF1070047
:1053BC0016468DF80730FFF759F86268C8F80020D8
:1053CC00A36803F580739B1A04F21C4804F5836AE6
:1053DC0004F21449BB4218D30021002E64D005F00E
:1053EC000F05AD0145F0050565F30F0163689DF8E8
:1053FC000700DAB203323B4444F822106360FFF733
:10540C0059F8012007B0BDE8F08F01214046FFF7A5
:10541C00F6FA5046FFF70BFB4846FFF708FBA0686F
:10542C000290C0B2033004EB800002A9FFF798FF92
:10543C0020BB029BDAB204EB8202D16803919A1C66
:10544C000133DBB204EB83030292D3F80CB001F00E
:10545C000303012B20D0022B13D083464846FFF7C1
:10546C00E9FA08B1029BA36059464046FFF7C7FA18
:10547C00A368626803F580739B1AABE79DF808007C
:10548C00D0E7BDF80E30C3F3891303334FEA1B4B3F
:10549C0002EB93030293E1E7BDF80C30C3F38313E3
:1054AC004FEA1B4B1344F5E7AD0545F006019DE7AC
:1054BC00280F0020064B074810B500221A70FFF782
:1054CC0028FD044610B90448FFF7F2FD204610BD34
:1054DC00280F0020CC600100C86D010030B50A4CCB
:1054EC0071B10A4A0A49121BD20800239A4201D10F
:1054FC00002030BD31F82350854202D00133F5E74E
:10550C00034654F83300F4E73C600100AC60010042
:10551C00800B0020094B013903EBC000032909D88B
:10552C00DFE801F00A020406042070470079704796
:10553C004079704700207047022070473C600100A2
:10554C0070470000034BD3E90130C31A584258414D
:10555C00704700BF280F00202DE9F04387B0FFF7FC
:10556C00F1FF0546002840F0E680744CC4F818049E
:10557C00BFF34F8FA3680293DBB2033304EB8300BA
:10558C0002A9FFF7EDFE029B18B1D4F81824002AEB
:10559C005CD0DAB29F1C013304EB8202DBB204EB69
:1055AC008303D268DB68049302F00303022B03929B
:1055BC00029756D1BDF80E306148C3F389184646A0
:1055CC00502E28BF502666F38F1306F10801ADF854
:1055DC000E30FFF7B6FC0546002800F09780FFF769
:1055EC00DFFC002303A908222846FFF7EBFCFB4352
:1055FC00DBB20133F9B20331B6EB830F4FEA830907
:10560C0004EB81012AD908234A46A6EB0906284651
:10561C00FFF7D8FCF6B24B4909F10803324608F102
:10562C000308284607EB9807FFF7CCFC0297D4F841
:10563C001834D4F81064002B53D02846FFF7B4FC70
:10564C00FFF780FF80F00100C5B203E062689A4268
:10565C0092D8A260284607B0BDE8F08308233246F2
:10566C00DDE7012B52D1BDF80C303548C3F3831163
:10567C00062928BF062161F38913023101F00F01BD
:10568C008900ADF80C30FFF75CFC054600283DD0D6
:10569C00FFF786FC0023082203A92846FFF792FC9B
:1056AC000026BDF80C20C2F38312B300964203F11E
:1056BC000803BCD202994A1CC9B20331029204EB12
:1056CC00810104222846FFF77DFC0136E9E7F368E7
:1056DC005B7923B1336829461B6830469847F368D9
:1056EC001E68002EF3D12846FFF75EFC0DF1070073
:1056FC008DF80760FEF7BAFED4F818340BB9029B8C
:10570C00A3609DF80700FEF7D5FE99E7D4F8104486
:10571C0054B90D4B0D480E49C01AC008000440F096
:10572C00020000F05FF88BE7236820469B689847DF
:10573C00E3681C68ECE700258CE700BF280F00200D
:10574C00CC600100340F00203C600100646001005B
:10575C00B16D01002DE9F34704460E46924601A9AE
:10576C00012218469946FFF719FE1C4F10B3019DF4
:10577C004FF00008AA1CC84508EB020125D11848B7
:10578C000021FFF719F980F31000000440EA1440DF
:10579C00E4006B1C04F03804DBB2EDB244F00104FD
:1057AC0007EB8303033544EA881444EA8624D86063
:1057BC0047F825403B781BB1FFF7CEFE0028FBD104
:1057CC00FFF7BEFE02B0BDE8F087C9B207EB81015E
:1057DC005AF82830CB6008F10108CCE7280F0020DC
:1057EC004413002000231A46FFF7B4BF07B501236A
:1057FC00019201AAFFF7AEFF03B05DF804FB1FB5E1
:10580C00CDE90123069B039301AA0323FFF7A2FF13
:10581C0005B05DF804FB1FB5CDE90023069B029390
:10582C00079B03936A460423FFF794FF05B05DF8CA
:10583C0004FB000030B50F4CD4F8102400231146A3
:10584C0039B9C1680B7152B9C4F810040A60184612
:10585C0030BDC9680D799D4206D00968F0E7D26861
:10586C0014680C601060F2E701330A2BE7D14FF09B
:10587C00FF33ECE7280F002038B5084B0125D3F88F
:10588C0010441D7004B938BDE3685D71236820466F
:10589C005B689847E3681C68F4E700BF280F00209A
:1058AC0007B503460846197A052911D05B7A2BB146
:1058BC00094A0A490190FFF720F90198084901901B
:1058CC00FFF71BF9019803B05DF804EBFFF70AB979
:1058DC00002AF8D0F2E700BFD46D0100D96D0100A9
:1058EC00F96D010030B5C38885B004460D4633B15F
:1058FC00144A00921449154A2846FFF7FEF8217AFB
:10590C0005291DD0637A4BB1A088FFF703FE104B1D
:10591C00104953F820202846FFF7EFF8227A0E4B57
:10592C00A08853F8222003920021FFF7D7FD039A99
:10593C000A490346284605B0BDE83040FFF7DDB8FC
:10594C0005B030BDD46D0100E46D0100DC6D0100CB
:10595C00606E0100D96D0100846E0100FC6D0100C8
:10596C002DE9F04385B01F460C9D002395F80C9053
:10597C002B7306460C46904629463846FFF7B2FF75
:10598C00B8F1060F09D8DFE808F00412181F283305
:10599C00400031462846FFF7B0F800222946384629
:1059AC00FFF77EFF85F80C9005B0BDE8F083226808
:1059BC0031462846FFF7A1F8EFE7D4E9002331463A
:1059CC002846FFF79AF8E8E7A36800933146D4E934
:1059DC0000232846FFF791F8DFE7E3680193A368FB
:1059EC0000933146D4E900232846FFF786F8D4E724
:1059FC0023690293E3680193A36800933146D4E9C9
:105A0C0000232846FFF779F8C7E7636903932369F6
:105A1C000293E3680193A36800933146D4E9002311
:105A2C002846FFF76AF8B8E708292DE9F74F8046B2
:105A3C000E4617461C463DD800251B7B2573214678
:105A4C0010460193FFF74EFFDFF88CA0DFF88CB007
:105A5C00AE4232D918F8052059462046FFF74DF8CA
:105A6C000135082DF4D11B49DFF874A0DFF874B0B0
:105A7C002046FFF742F84FF000094E4524D918F89C
:105A8C0009507E2D1ED8284600F0F3F9002814BFCB
:105A9C002A462E2259462046FFF72FF809F1010914
:105AAC00B9F1080FE9D1012221463846FFF7F8FE7B
:105ABC00019B237303B0BDE8F08F51462046FFF7DE
:105ACC001CF8CDE72E22E5E751462046FFF715F8E6
:105ADC00E4E700BF106E01000C6E0100066E0100C1
:105AEC000E6E0100126E010010DF704713B50446F4
:105AFC0009496846FFF7E5FA019808B902B010BDEC
:105B0C00D0E900212046904718B16846FFF7E1FA2A
:105B1C00F2E71120F2E700BFCC6E010013B504468A
:105B2C0007496846FFF7CDFA019B0BB902B010BDCF
:105B3C002046D3E9002190476846FFF7CAFAF3E7FD
:105B4C00E46E01000B4991F81623EC235209134122
:105B5C00DB0706D5084B9A683AB94FF480030B6003
:105B6C00704742F20200FEF725BA1A6842F480022E
:105B7C001A60704700E100E0EC0D0020F7B5194FFA
:105B8C003C786CBB184E012520463570FFF7AEFFF4
:105B9C00112822D02046FFF7C1FF144B8DF803408B
:105BAC00186801900DF10300FEF760FC104A1149D2
:105BBC0001A8FFF799FF0446B0FA80F0400938704D
:105BCC009DF80300FEF776FC3CB90B4B34701C704F
:105BDC00FFF7B8FF2846FFF7A1FF204603B0F0BD42
:105BEC000824FAE7E1130020E0130020C86E01003E
:105BFC00986E0100DD3F0100E2130020014B187884
:105C0C00704700BFE113002007B508496846FFF74D
:105C1C0058FA019B13B903B05DF804FBD3E90020DB
:105C2C0090476846FFF755FAF3E700BFD86E0100BE
:105C3C00FFF7EABFC1DF7047FADF704710B5124BB0
:105C4C001B788EB0EBB1114C02AA0DF135010DA8E9
:105C5C00FFF7F0FF70B921466846FFF732FA019B57
:105C6C00002BF1D002A8D3E9002190476846FFF73A
:105C7C0030FAF4E7052804D00EB0BDE81040FEF76A
:105C8C0099B90EB010BD00BF64140020286F01003C
:105C9C001FB50F4A07CA01AB83E807001846FFF788
:105CAC00CBFF044628B90B4B01221A70204604B0D6
:105CBC0010BDFFF75FFA0849084B5B1ADB081B04A1
:105CCC000246074943F00100FFF790FDEEE700BFE5
:105CDC001C6F0100641400203C6001009460010002
:105CEC00F06E0100002B35D129B9B0FBF2FC0CFB96
:105CFC00120260467047914215D22DE9F041B2FA7A
:105D0C0082F39A409940D3F1200C30FA0CFC51EA02
:105D1C000C01984000F04EF8280036FA03F20021EE
:105D2C000023BDE8F081F0B5B1FBF2FC0CFB1211C5
:105D3C00B2FA82F39A409940D3F1200630FA06F673
:105D4C003143984000F036F8614628003200DA40C2
:105D5C000023F0BDF3B5B3FA83FC49085FEA3000C9
:105D6C0013FA0CF3DCF1200432FA04F423430CB4E0
:105D7C001A0000F01FF80CBC33FA0CF3DCF11F0C0A
:105D8C0035FA0CF518BF013D03BCA5FB026705FBFA
:105D9C000377801BB941904271EB030C05D3821A37
:105DAC0071EB0303681C0021F0BD02000B002800FE
:105DBC000021F0BD940D4FF6C2752D02B5FBF4F425
:105DCC00D60A013604FB04F5A5FB0656F64306EB92
:105DDC000416550832BF00277708013505FB1677E6
:105DEC00A6FB07477F0807EBC63714001500E7FB37
:105DFC0002457F1B4D1C0400E7FB014505FB120609
:105E0C00A64284BF013DB618964224BF0135B61A8E
:105E1C00704700BF002A04BF0020704784460978F1
:105E2C0048B2002844BF6FF001007047BCF1000F6E
:105E3C0018BFCCF800100021C3E90011002818BFCE
:105E4C00012070477F298EBF6FF001000170012087
:105E5C00704741F26842C2F200021368002B02BF85
:105E6C0040F62C43C2F2000313605A689268126821
:105E7C0010470921FFF7EDBF7F2884BF0020704732
:105E8C0047F24812C0F20102515C47F2C802C0F25C
:105E9C000102105C08407047A0F161011A2938BF5B
:105EAC0020387047A0F141011A2938BF20307047C3
:105EBC007F2884BF0020704747F24812C0F20102CD
:105ECC00515C47F2C802C0F20102105C08407047F6
:105EDC00A0F161011A2938BF20387047A0F14101A7
:105EEC001A2938BF20307047411C82070CD010F89B
:105EFC00012B3AB3820707D010F8012B12B382079B
:105F0C0002D010F8012BEAB14FF0013C50F8042BF1
:105F1C00CCFA52F37BB950F8042BCCFA52F353B9A8
:105F2C0050F8042BCCFA52F32BB950F8042BCCFAC2
:105F3C0052F3002BEAD004381BBAB3FA83F300EB0C
:105F4C00D3000130401A704772B3844690EA0103C3
:105F5C009B0721D1830709D011F8013B00F8013BC5
:105F6C00013A20D08307F7D100E08446202A0AD3D7
:105F7C002DE9F007B1E8F807A0E8F807203A202A45
:105F8C00F8D2BDE8F007042A06D351F8043B40F8D8
:105F9C00043B043A042AF8D22AB111F8013B00F868
:105FAC00013B013AF9D16046704700BF00220B005B
:105FBC0011001A0084465AB3830704D000F8011B61
:105FCC00013AF9D124E0C9B241EA012141EA014187
:105FDC00202A11D3203A2DE9F0030B460C460D462E
:105FEC000E460F4688468946A0E8FA03203AFBD2B3
:105FFC00BDE8F00320320BD0042A05D340F8041B73
:10600C00043A05D0042AF9D200F8011B013AFBD15D
:10601C0060467047072904D90023024AC0E90031C1
:08602C00106070476C140020A5
:08603400D1230100000000006F
:10603C0070610100000000005461010000000000CC
:10604C005B610100000000005F61010000000000C6
:10605C006461010000000000C26D01000000030338
:10606C007661010000000000A16101000000000049
:10607C006A61010000000000DA6701000000030300
:10608C00C06E0100000003030D6F0100000003034C
:10609C005C68010000000000746801000000000052
:0860AC00B53B010000000000FB
:0860B400495C0100000000003E
:1060BC00946D010000000000A06D0100240C002074
:1060CC00580E0020200F0020280F0020600E00200A
:0460DC0018000000A8
:1060E000414E542042726F61646361737420525850
:1060F000206578616D706C6520737461727465647D
:106100002E000000004200000000002000001112DC
:10611000131400000D000300D52501000E0003003C
:10612000D52501000F000300D52501001000030054
:10613000D5250100800B0020A00B0020C00B002003
:106140000000010101000000010100000000010148
:10615000000000004750494F54450050525300552D
:1061600041525400554152544500636C6F636B00BB
:10617000434C4F434B006170705F627574746F6E77
:1061800000000000E80B0020466174616C2065721D
:10619000726F720053797374656D207265736574E4
:1061A000006170705F74696D657200000100060027
:1061B00000000000640D00204940010052544320BB
:1061C000696E7374616E636520616C726561647978
:1061D00020696E697469616C697A65642E00525435
:1061E000433A20696E697469616C697A65642E004E
:1061F0000338FDD8704748415244204641554C541D
:106200002061742030782530385800202052303AF0
:106210002020307825303858202052313A20203044
:106220007825303858202052323A202030782530D6
:106230003858202052333A20203078253038580002
:1062400020205231323A2030782530385820204CE6
:10625000523A202030782530385820205053523A76
:106260002030782530385800537461636B2076698C
:106270006F6C6174696F6E3A20737461636B207028
:106280006F696E746572206F7574736964652073CD
:106290007461636B20617265612E00436175736583
:1062A0003A204275734661756C74206F6E206120D0
:1062B000766563746F72207461626C6520726561CB
:1062C0006420647572696E672065786365707469AF
:1062D0006F6E2070726F63657373696E672E004313
:1062E000617573653A2025732E004D656D4D616EA5
:1062F000616765204661756C7420416464726573E2
:10630000733A203078253038580042757320466142
:10631000756C7420416464726573733A203078251B
:10632000303858005468652070726F636573736FFE
:10633000722068617320617474656D707465642087
:10634000746F206578656375746520616E20756E65
:10635000646566696E656420696E737472756374D2
:10636000696F6E005468652070726F636573736F38
:106370007220617474656D707465642061206C6F47
:106380006164206F722073746F7265206174206184
:10639000206C6F636174696F6E207468617420642F
:1063A0006F6573206E6F74207065726D69742074F0
:1063B0006865206F7065726174696F6E00556E73E9
:1063C0007461636B20666F7220616E20657863650F
:1063D0007074696F6E2072657475726E2068617377
:1063E00020636175736564206F6E65206F72206D28
:1063F0006F7265206163636573732076696F6C618A
:1064000074696F6E7300537461636B696E672066A5
:106410006F7220616E20657863657074696F6E209D
:10642000656E747279206861732063617573656449
:10643000206F6E65206F72206D6F726520616363DF
:106440006573732076696F6C6174696F6E73004158
:10645000204D656D4D616E616765206661756C7478
:10646000206F6363757272656420647572696E670C
:1064700020666C6F6174696E672D706F696E742031
:106480006C617A79207374617465207072657365CC
:1064900072766174696F6E00496E7374727563749D
:1064A000696F6E20627573206572726F720044614D
:1064B000746120627573206572726F722028504378
:1064C0002076616C756520737461636B656420660A
:1064D0006F722074686520657863657074696F6E8B
:1064E0002072657475726E20706F696E747320749B
:1064F0006F2074686520696E737472756374696F58
:106500006E207468617420636175736564207468BB
:1065100065206661756C7429004461746120627540
:1065200073206572726F72202872657475726E20A6
:106530006164647265737320696E2074686520738A
:106540007461636B206672616D65206973206E6F84
:10655000742072656C6174656420746F2074686562
:1065600020696E737472756374696F6E20746861EC
:106570007420636175736564207468652065727248
:106580006F722900556E737461636B20666F7220A1
:10659000616E20657863657074696F6E20726574D2
:1065A00075726E2068617320636175736564206F16
:1065B0006E65206F72206D6F726520427573466143
:1065C000756C747300537461636B696E6720666FDA
:1065D0007220616E20657863657074696F6E2065E6
:1065E0006E747279206861732063617573656420CD
:1065F0006F6E65206F72206D6F72652042757346F5
:1066000061756C7473004120627573206661756CEE
:1066100074206F6363757272656420647572696E4D
:106620006720666C6F6174696E672D706F696E7438
:10663000206C617A7920737461746520707265735F
:106640006572766174696F6E005468652070726F50
:10665000636573736F722068617320617474656D14
:106660007074656420746F20657865637574652047
:10667000616E20696E737472756374696F6E2074D5
:10668000686174206D616B657320696C6C6567610E
:106690006C20757365206F662074686520455053C3
:1066A00052005468652070726F636573736F722057
:1066B00068617320617474656D7074656420616EC7
:1066C00020696C6C6567616C206C6F6164206F661B
:1066D000204558435F52455455524E20746F2074E4
:1066E00068652050432C20617320612072657375AA
:1066F0006C74206F6620616E20696E76616C6964CF
:1067000020636F6E746578742C206F7220616E2028
:10671000696E76616C6964204558435F52455455F3
:10672000524E2076616C7565005468652070726FFA
:10673000636573736F722068617320617474656D33
:106740007074656420746F20616363657373206186
:1067500020636F70726F636573736F720054686546
:106760002070726F636573736F7220686173206D40
:1067700061646520616E20756E616C69676E656429
:10678000206D656D6F72792061636365737300546A
:1067900068652070726F636573736F7220686173D0
:1067A00020657865637574656420616E2053444983
:1067B00056206F72205544495620696E7374727565
:1067C0006374696F6E2077697468206120646976EC
:1067D00069736F72206F6620300068617264666151
:1067E000756C740024630100646301000000000004
:1067F000BD630100066401004F6401000000000059
:106800000000000098640100AE64010019650100F9
:1068100084650100C56501000666010000000000F6
:10682000000000002463010049660100A266010027
:1068300029670100000000000000000000000000C7
:10684000000000005D6701008F67010030313233C6
:106850003435363738394142434445467077725FA4
:106860006D676D74000000003C6001003C60010039
:1068700004000000736F72746C697374004E5246AA
:106880005F53554343455353004E52465F45525262
:106890004F525F5356435F48414E444C45525F4D03
:1068A000495353494E47004E52465F4552524F524C
:1068B0005F534F46544445564943455F4E4F545FDE
:1068C000454E41424C4544004E52465F4552524F60
:1068D000525F494E5445524E414C004E52465F4520
:1068E00052524F525F4E4F5F4D454D004E52465FE4
:1068F0004552524F525F4E4F545F464F554E4400E3
:106900004E52465F4552524F525F4E4F545F535561
:1069100050504F52544544004E52465F4552524FDC
:10692000525F494E56414C49445F504152414D00DF
:106930004E52465F4552524F525F494E56414C4966
:10694000445F5354415445004E52465F4552524FA6
:10695000525F494E56414C49445F4C454E4754485E
:10696000004E52465F4552524F525F494E56414C7F
:1069700049445F464C414753004E52465F45525290
:106980004F525F494E56414C49445F444154410087
:106990004E52465F4552524F525F444154415F53FD
:1069A000495A45004E52465F4552524F525F544934
:1069B0004D454F5554004E52465F4552524F525F1F
:1069C0004E554C4C004E52465F4552524F525F4618
:1069D0004F5242494444454E004E52465F45525242
:1069E0004F525F494E56414C49445F414444520026
:1069F0004E52465F4552524F525F42555359004ED8
:106A000052465F4552524F525F434F4E4E5F434F87
:106A1000554E54004E52465F4552524F525F5245BA
:106A2000534F5552434553004E52465F4552524FC5
:106A3000525F4D4F44554C455F4E4F545F494E4950
:106A40005449414C495A4544004E52465F455252C2
:106A50004F525F4D555445585F494E49545F46412A
:106A6000494C4544004E52465F4552524F525F4D8D
:106A7000555445585F4C4F434B5F4641494C454444
:106A8000004E52465F4552524F525F4D5554455845
:106A90005F554E4C4F434B5F4641494C4544004E79
:106AA00052465F4552524F525F4D555445585F43D1
:106AB0004F4E445F494E49545F4641494C4544005E
:106AC0004E52465F4552524F525F4D4F44554C45D2
:106AD0005F414C52454144595F494E495449414CEC
:106AE000495A4544004E52465F4552524F525F53F9
:106AF000544F524147455F46554C4C004E52465FFD
:106B00004552524F525F4150495F4E4F545F494D7D
:106B1000504C454D454E544544004E52465F4552FB
:106B2000524F525F464541545552455F4E4F545F58
:106B3000454E41424C4544004E52465F4552524FED
:106B4000525F494F5F50454E44494E47004E5246B2
:106B50005F4552524F525F4452565F5457495F450A
:106B600052525F4F56455252554E004E52465F4567
:106B700052524F525F4452565F5457495F455252EA
:106B80005F414E41434B004E52465F4552524F5279
:106B90005F4452565F5457495F4552525F444E41DD
:106BA000434B004E52465F4552524F525F424C4556
:106BB0005F495053505F52585F504B545F54525589
:106BC0004E4341544544004E52465F4552524F5247
:106BD0005F424C455F495053505F4348414E4E45DC
:106BE0004C5F414C52454144595F455849535453B9
:106BF000004E52465F4552524F525F424C455F49EC
:106C00005053505F4C494E4B5F444953434F4E4E97
:106C10004543544544004E52465F4552524F525FE1
:106C2000424C455F495053505F504545525F524575
:106C30004A454354454400556E6B6E6F776E206530
:106C400072726F7220636F646500000000000000C4
:106C50007D68010001000000896801000200000059
:106C6000A768010003000000C868010004000000DC
:106C7000DB68010005000000EC6801000600000070
:106C80000069010007000000186901000800000009
:106C90003069010009000000486901000A00000095
:106CA000616901000B000000796901000C0000001F
:106CB000906901000D000000A46901000E000000B1
:106CC000B66901000F000000C56901001000000056
:106CD000D969010011000000F069010012000000F4
:106CE000FF69010013000000146A01008000000029
:106CF000286A010081000000496A0100820000004A
:106D0000656A010083000000816A010084000000C0
:106D10009F6A010085000000C06A01008600000033
:106D2000E56A010090000000FC6A0100910000008B
:106D30001A6B010092000000386B01000082000015
:106D40004D6B0100018200006B6B010002820000AC
:106D5000876B010000840000A36B01000184000028
:106D6000C76B010002840000F16B01000384000086
:106D7000166C0100FFFFFFFFFFFFFFFFFFFFFFFF9C
:106D8000FFFFFFFF00000000000000000000D60130
:106D900006010000B55201001953010065520100BF
:106DA000756172745F6C6F675F6261636B656E645F
:106DB000004261636B656E647320666C7573686511
:106DC0006400617070000000481300207F00000024
:106DD000C81300201B5B306D002573001B5B313B2B
:106DE00033316D0025734C6F67732064726F707060
:106DF0006564202825642925730D0A003C25733E0F
:106E00002025733A200020253032780020202000F1
:106E10007C002563001B5B313B33306D001B5B3115
:106E20003B33326D001B5B313B33336D001B5B31F9
:106E30003B33346D001B5B313B33356D001B5B31E5
:106E40003B33366D001B5B313B33376D007761722E
:106E50006E696E6700696E666F00646562756700D3
:106E6000D46D0100156E0100DC6D01001D6E010086
:106E7000256E01002D6E0100356E01003D6E010092
:106E8000456E0100000000008E6101004D6E0100A2
:106E9000556E01005A6E0100333833312D353231D1
:106EA000642D376466392D323464382D6566663357
:106EB0002D343637622D323235662D613030650023
:106EC0006E72665F7364680001000007AC600100C9
:106ED000AC60010008000000B4600100BC6001006B
:106EE00008000000AC600100B46001000800000070
:106EF00073645F616E745F656E61626C65282920E2
:106F000072657475726E65642025732E006E7266EC
:106F10005F7364685F616E74000000000100200010
:106F2000E413002080000000346001003C60010098
:106F300008000000406F010070700100446F010004
:106F400043000000855E0100A55E0100B15E010006
:106F5000BD5E0100DD5E0100E95E0100515E0100E1
:106F6000215E010053756E004D6F6E005475650013
:106F70005765640054687500467269005361740077
:106F8000004A616E00466562004D61720041707298
:106F9000004D6179004A756E004A756C0041756755
:106FA00000536570004F6374004E6F760044656354
:106FB00000002E000053756E646179004D6F6E64A1
:106FC00061790054756573646179005765646E6515
:106FD00073646179005468757273646179004672F4
:106FE0006964617900536174757264617900004A63
:106FF000616E7561727900466562727561727900C1
:107000004D6172636800417072696C004D61790076
:107010004A756E65004A756C7900417567757374C1
:107020000053657074656D626572004F63746F62C2
:107030006572004E6F76656D6265720044656365CA
:107040006D6265720000414D00504D0000256D2FAE
:1070500025642F25790025483A254D3A25530025EA
:107060006120256220256520255420255900000037
:10707000B26F0100B46F0100B46F0100B46F010082
:10708000B46F0100B46F0100B46F0100B46F010070
:10709000B46F0100B46F0100FFFFFFFFFFFFFFFFB0
:1070A000FFFFFFFFFFFF0000B56F0100646F0100ED
:1070B000EF6F0100816F0100467001004D7001000B
:1070C000567001005F700100202020202020202029
:1070D0002068282828282020202020202020202048
:1070E00020202020202020204810101010101010E8
:1070F00010101010101010108484848484848484F0
:107100008484101010101010108181818181810100
:10711000010101010101010101010101010101015F
:1071200001010110101010101082828282828202EE
:10713000020202020202020202020202020202022F
:107140000202021010101020000703200417020191
:0571500008571040800B
:107158000000000000000000FFFFFFFFFFFFFFFF2F
:107168000000000000000000000000000000000017
:107178000000000000000000FFFFFFFFFFFFFFFF0F
:1071880000000000000000000000000000000000F7
:107198000000000000000000FFFFFFFFFFFFFFFFEF
:1071A80000000000000000000000000000000000D7
:1071B8000090D00300000000000000000000000064
:1071C800FFFFFFFFFFFFFFFF0000000000000000BF
:1071D8000000000000000000001001401100040041
:1071E80000000000002000400000000000200040D7
:1071F8000000000000000000FF000000346F0100E4
:10720800346F0100346F0100346F0100346F0100E6
:0400000310002219AE
:00000001FF
